:020000040800F2
:100000007806002089010008B3030008AB0300084C
:10001000AF03000845020008770600080000000052
:10002000000000000000000000000000490400087B
:1000300049020008000000002504000835050008FA
:10004000A3010008A3010008A3010008A301000800
:10005000A3010008A3010008A3010008A3010008F0
:10006000A3010008A3010008A3010008A3010008E0
:10007000A3010008A3010008A3010008A3010008D0
:10008000A3010008A301000843020008A30100081F
:10009000A3010008A3010008A3010008A3010008B0
:1000A000A3010008A3010008A3010008A3010008A0
:1000B000A3010008A301000899050008A301000896
:1000C000A3010008A3010008A3010008A301000880
:1000D000A3010008A3010008A3010008A301000870
:1000E000A3010008A3010008A301000800F002F822
:1000F00000F03AF80AA090E8000C82448344AAF188
:100100000107DA4501D100F02FF8AFF2090EBAE885
:100110000F0013F0010F18BFFB1A43F0010318473B
:100120006805000088050000103A24BF78C878C12F
:10013000FAD8520724BF30C830C144BF04680C60ED
:10014000704700000023002400250026103A28BF35
:1001500078C1FBD8520728BF30C148BF0B60704739
:100160001FB51FBD10B510BD00F031F81146FFF7E7
:10017000F7FF00F082FA00F04FF803B4FFF7F2FF48
:1001800003BC00F057F800000948804709480047C1
:10019000FEE7FEE7FEE7FEE7FEE7FEE7FEE7FEE737
:1001A000FEE7FEE704480549054A064B7047000094
:1001B00039050008ED0000087800002078060020CE
:1001C000780200207802002070477047704775461B
:1001D00000F02CF8AE4605006946534620F00700B3
:1001E000854618B020B5FFF7DDFFBDE820404FF091
:1001F00000064FF000074FF000084FF0000B21F011
:100200000701AC46ACE8C009ACE8C009ACE8C009DD
:10021000ACE8C0098D46704710B50446AFF30080C6
:100220002046BDE81040FFF7A8BF00000048704717
:100230001400002001491820ABBEFEE72600020092
:100240007047704700BFFEE77047000010B50121FE
:10025000082000F0E9F84FF40070054908800320F9
:1002600088701020C870034800F006F810BD000028
:1002700000000020000C01402DE9F041024600255D
:100280000026002000230024002791F803C00CF072
:100290000F0591F803C00CF0100CBCF1000F03D057
:1002A00091F802C04CEA050591F800C0BCF1000FBE
:1002B00031D0146800202BE04FF0010C0CFA00F351
:1002C000B1F800C00CEA03069E4220D183004FF033
:1002D0000F0C0CFA03F7BC4305FA03FC4CEA0404C8
:1002E00091F803C0BCF1280F06D14FF0010C0CFAB5
:1002F00000FCC2F814C00AE091F803C0BCF1480F3A
:1003000005D14FF0010C0CFA00FCC2F810C0401CE3
:100310000828D1D31460B1F800C0BCF1FF0F34DD60
:10032000546800202EE000F1080C4FF0010808FA94
:100330000CF3B1F800C00CEA03069E4221D1830001
:100340004FF00F0C0CFA03F7BC4305FA03FC4CEA20
:10035000040491F803C0BCF1280F05D100F1080C8A
:1003600008FA0CF8C2F8148091F803C0BCF1480FE9
:1003700007D100F1080C4FF0010808FA0CF8C2F898
:100380001080401C0828CED35460BDE8F08102469E
:10039000002093680B400BB1012000E00020704763
:1003A0000AB1016100E04161704700BFFEE700BF94
:1003B000FEE7704770B5002100230F22C47804B314
:1003C000154C246804F4E064C4F5E064210AC1F12A
:1003D0000403CA40447804FA03F1847814402143AA
:1003E00009010E4C0678A155047804F01F0501247C
:1003F000AC4005786D11AD0005F1E025C5F8004170
:1004000009E0047804F01F050124AC40044D06788F
:10041000761145F8264070BD0CED00E000E400E0E8
:1004200080E100E07047000029B1064A926902436A
:10043000044B9A6104E0034A92698243014B9A613A
:100440007047000000100240704710B500F002F83D
:1004500010BD00000CB500200190009033480068EA
:1004600040F480303149086000BF3048006800F433
:10047000003000900198401C0190009818B9019834
:10048000B0F5A06FF1D12948006800F4003010B138
:100490000120009001E0002000900098012843D145
:1004A0002348006840F010002149086008460068B1
:1004B00020F0030008600846006840F00200086071
:1004C0001A4840681949486008464068486008462C
:1004D000406840F4806048600846406820F47C1022
:1004E00048600846406840F4A81048600846006824
:1004F00040F08070086000BF0C48006800F0007099
:100500000028F9D00948406820F0030007494860F6
:100510000846406840F00200486000BF0348406859
:1005200000F00C000828F9D10CBD000000100240BA
:10053000002002407047000010B51348006840F0EA
:1005400001001149086008464068104908400E49FA
:100550004860084600680E4908400B490860084694
:10056000006820F4802008600846406820F4FE00FF
:1005700048604FF41F008860FFF767FF4FF000608E
:100580000449086010BD0000001002400000FFF8A0
:10059000FFFFF6FE08ED00E010B501210B4800F06A
:1005A00058F8012810D10121084800F043F84FF411
:1005B00000710748FFF7EBFE80F0010422464FF47C
:1005C00000710348FFF7ECFE10BD0000000800407A
:1005D000000C014010B501210420FFF725FF002089
:1005E00011494880C8806320888041F61F400880F8
:1005F0000020087201210D4800F01CF8012211466C
:100600000A4800F02FF80121084800F016F81E20D3
:10061000074908700020487088700120C87008469B
:10062000FFF7C8FE10BD00000800002000080040D1
:1006300004000020CA430282704721B1028842F0C0
:100640000102028004E002884FF6FE731A40028025
:10065000704702460020138A0B400BB1012000E0D6
:10066000002070471AB183890B43838102E083899C
:100670008B438381704700BFFEE7FFF7E7FDFFF77D
:10068000A9FF00BFFEE70000A80600080000002048
:100690000800000028010008B0060008080000203B
:1006A0007006000044010008000000000000000087
:04000005080000ED02
:00000001FF
