:020000040800F2
:10000000880600208901000807040008FF03000893
:100010000304000845020008C90D000800000000A4
:10002000000000000000000000000000D1050008F2
:10003000490200080000000079040008BD0600081D
:10004000A3010008A3010008A3010008A301000800
:10005000A3010008A3010008A3010008A3010008F0
:10006000A3010008A3010008A3010008A3010008E0
:10007000A3010008A3010008A3010008A3010008D0
:10008000A3010008A301000843020008A30100081F
:10009000A3010008A3010008A3010008A3010008B0
:1000A000A3010008A3010008A3010008A3010008A0
:1000B000A3010008A301000821070008A30100080C
:1000C000A3010008A3010008A3010008A301000880
:1000D000A3010008A3010008A3010008A301000870
:1000E000A3010008A3010008A301000800F002F822
:1000F00000F03AF80AA090E8000C82448344AAF188
:100100000107DA4501D100F02FF8AFF2090EBAE885
:100110000F0013F0010F18BFFB1A43F0010318473B
:10012000EC0C00000C0D0000103A24BF78C878C118
:10013000FAD8520724BF30C830C144BF04680C60ED
:10014000704700000023002400250026103A28BF35
:1001500078C1FBD8520728BF30C148BF0B60704739
:100160001FB51FBD10B510BD00F031F81146FFF7E7
:10017000F7FF00F03DFE00F04FF803B4FFF7F2FF89
:1001800003BC00F057F800000948804709480047C1
:10019000FEE7FEE7FEE7FEE7FEE7FEE7FEE7FEE737
:1001A000FEE7FEE704480549054A064B7047000094
:1001B000C1060008ED000008880000208806002025
:1001C00088020020880200207047704770477546FB
:1001D00000F02CF8AE4605006946534620F00700B3
:1001E000854618B020B5FFF7DDFFBDE820404FF091
:1001F00000064FF000074FF000084FF0000B21F011
:100200000701AC46ACE8C009ACE8C009ACE8C009DD
:10021000ACE8C0098D46704710B50446AFF30080C6
:100220002046BDE81040FFF7A8BF00000048704717
:100230002800002001491820ABBEFEE7260002007E
:100240007047704700BFFEE77047000010B50121FE
:10025000102000F033F94FF40050054908800320C6
:1002600088701020C870034800F006F810BD000028
:1002700000000020001001402DE9F0410246002559
:100280000026002000230024002791F803C00CF072
:100290000F0591F803C00CF0100CBCF1000F03D057
:1002A00091F802C04CEA050591F800C0BCF1000FBE
:1002B00031D0146800202BE04FF0010C0CFA00F351
:1002C000B1F800C00CEA03069E4220D183004FF033
:1002D0000F0C0CFA03F7BC4305FA03FC4CEA0404C8
:1002E00091F803C0BCF1280F06D14FF0010C0CFAB5
:1002F00000FCC2F814C00AE091F803C0BCF1480F3A
:1003000005D14FF0010C0CFA00FCC2F810C0401CE3
:100310000828D1D31460B1F800C0BCF1FF0F34DD60
:10032000546800202EE000F1080C4FF0010808FA94
:100330000CF3B1F800C00CEA03069E4221D1830001
:100340004FF00F0C0CFA03F7BC4305FA03FC4CEA20
:10035000040491F803C0BCF1280F05D100F1080C8A
:1003600008FA0CF8C2F8148091F803C0BCF1480FE9
:1003700007D100F1080C4FF0010808FA0CF8C2F898
:100380001080401C0828CED35460BDE8F08102469E
:10039000002093680B400BB1012000E00020704763
:1003A00008B50121084600F089F80121042000F079
:1003B00085F80121042000F081F80420ADF8000048
:1003C00003208DF8020018208DF8030069460848C4
:1003D000FFF752FF0820ADF8000003208DF802005F
:1003E00004208DF8030069460148FFF745FF08BD6A
:1003F000000801400AB1016100E04161704700BF9F
:10040000FEE700BFFEE7704770B5002100230F2212
:10041000C47804B3154C246804F4E064C4F5E064C3
:10042000210AC1F10403CA40447804FA03F1847834
:100430001440214309010E4C0678A155047804F0BC
:100440001F050124AC4005786D11AD0005F1E025D4
:10045000C5F8004109E0047804F01F050124AC4010
:10046000044D0678761145F8264070BD0CED00E08D
:1004700000E400E080E100E07047000029B1064A96
:10048000D2690243044BDA6104E0034AD269824331
:10049000014BDA61704700000010024029B1064AA2
:1004A00012690243044B1A6104E0034A1269824351
:1004B000014B1A61704700000010024029B1064A42
:1004C00092690243044B9A6104E0034A92698243B1
:1004D000014B9A61704700000010024029B1064AA2
:1004E000D2680243044BDA6004E0034AD2688243D4
:1004F000014BDA60704700000010024030B5002167
:100500000022002400232D4D6D6805F00C0121B15F
:10051000042905D0082923D105E0294D056022E0F2
:10052000274D05601FE0254D6D6805F47012234DC1
:100530006D6805F48034022505EB92421CB9214D0B
:10054000554305600BE01D4D6D6805F400351DB188
:100550001C4D5543056002E0194D5543056002E00E
:10056000174D056000BF00BF144D6D6805F0F00128
:100570000909154D6B5C0568DD4045600F4D6D68E0
:1005800005F4E061090A104D6B5C4568DD4085604B
:100590000A4D6D6805F46051C90A0B4D6B5C4568E6
:1005A000DD40C560054D6D6805F44041890B074D80
:1005B0006B5CC568B5FBF3F5056130BD001002400A
:1005C00000127A0000093D000800002018000020F9
:1005D000704710B500F002F810BD00000CB5002007
:1005E000019000903348006840F480303149086041
:1005F00000BF3048006800F4003000900198401CB3
:100600000190009818B90198B0F5A06FF1D1294870
:10061000006800F4003010B10120009001E00020DB
:1006200000900098012843D12348006840F0100052
:10063000214908600846006820F003000860084669
:10064000006840F0020008601A4840681949486094
:100650000846406848600846406840F4806048604A
:100660000846406820F47C1048600846406840F422
:10067000A81048600846006840F08070086000BF1D
:100680000C48006800F000700028F9D00948406864
:1006900020F00300074948600846406840F0020027
:1006A000486000BF0348406800F00C000828F9D1FA
:1006B0000CBD000000100240002002407047000006
:1006C00010B51348006840F0010011490860084661
:1006D0004068104908400E494860084600680E49C5
:1006E00008400B4908600846006820F48020086034
:1006F0000846406820F4FE0048604FF41F00886000
:10070000FFF767FF4FF000600449086010BD00006C
:10071000001002400000FFF8FFFFF6FE08ED00E0C9
:1007200010B501210E4800F06FF9B8B14FF4005137
:100730000C48FFF72CFE80F0010422464FF40051D4
:100740000848FFF757FE08A1094800F030FB642075
:1007500000F03CFB0121024800F052F810BD0000FF
:100760000008004000100140546573740A0D000039
:100770000044004010B5194800F052F8012104204F
:10078000FFF77CFE002016494880C88063208880DF
:1007900041F61F40088000200872104800F04EF912
:1007A00001210E4800F020F8012211460B4800F00C
:1007B0003CF90121094800F023F80121074800F025
:1007C00022F81E2007490870002048708870012018
:1007D000C8700846FFF718FE10BD00000008004072
:1007E0001C0000200400002021B1028842F0800299
:1007F000028004E002884FF67F731A40028070473F
:10080000CA430282704721B1028842F0010202808D
:1008100004E002884FF6FE731A4002807047000021
:1008200010B504466848844208D10121C014FFF77E
:1008300055FE0021E014FFF751FEC4E0B4F1804FF3
:1008400008D101210846FFF729FE00210120FFF70A
:1008500025FEB8E05D48844208D101210220FFF75F
:100860001DFE00210220FFF719FEACE0584884422B
:1008700008D101210420FFF711FE00210420FFF719
:100880000DFEA0E05348844208D101210820FFF763
:1008900005FE00210820FFF701FE94E04E48844247
:1008A00008D101211020FFF7F9FD00211020FFF7EA
:1008B000F5FD88E04948844208D101212020FFF756
:1008C000EDFD00212020FFF7E9FD7CE04448844253
:1008D00008D101214014FFF701FE00216014FFF749
:1008E000FDFD70E03F48844209D10121C804FFF7B3
:1008F000F5FD00214FF40020FFF7F0FD63E03A48DA
:10090000844209D101210805FFF7E8FD00214FF4D9
:100910008010FFF7E3FD56E03448844209D10121FD
:100920004805FFF7DBFD00214FF40010FFF7D6FD6F
:1009300049E02F48844208D101214020FFF7AEFD55
:1009400000214020FFF7AAFD3DE02A48844208D15B
:1009500001218020FFF7A2FD00218020FFF79EFDEE
:1009600031E02548844208D101218015FFF796FD2A
:100970000021A015FFF792FD25E02048844209D10F
:1009800001210804FFF7AAFD00214FF48030FFF792
:10099000A5FD18E01A48844209D101214804FFF757
:1009A0009DFD00214FF40030FFF798FD0BE0154846
:1009B000844208D101218804FFF790FD00214FF403
:1009C0008020FFF78BFD10BD002C0140000400408B
:1009D00000080040000C00400010004000140040DF
:1009E00000340140004C01400050014000540140DF
:1009F00000180040001C0040002000400040014062
:100A0000004401400048014030B502460020002368
:100A10000024158A05EA0103958905EA010413B14A
:100A20000CB1012000E0002030BD1AB183890B43D6
:100A3000838102E083898B4383817047002202888F
:100A40001D4B98420ED01D4B98420BD0B0F1804FF9
:100A500008D01B4B984205D01A4B984202D01A4B33
:100A6000984204D14FF68F731A404B881A43174BA4
:100A7000984207D0164B984204D04FF6FF431A40D5
:100A8000CB881A4302808B8883850B8803850A4BA9
:100A900098420BD0094B984208D00E4B984205D093
:100AA0000D4B984202D00D4B984201D10B7A038630
:100AB0000123838270470000002C01400034014074
:100AC0000004004000080040000C004000100040FE
:100AD0000014004000400140004401400048014033
:100AE00001F40072B2F5007F00D100BFCA4302805A
:100AF000704721B1828942F40052828104E08289E8
:100B00004DF6FF731A4082817047000010B504460D
:100B10002048844209D101218803FFF7DFFC00212E
:100B20004FF48040FFF7DAFC32E01B48844209D1E1
:100B300001214804FFF7B2FC00214FF40030FFF719
:100B4000ADFC25E01548844209D101218804FFF756
:100B5000A5FC00214FF48020FFF7A0FC18E010480E
:100B6000844209D10121C804FFF798FC00214FF409
:100B70000020FFF793FC0BE00A48844208D10121D2
:100B80000805FFF78BFC00214FF48010FFF786FC6F
:100B900010BD000000380140004400400048004003
:100BA000004C00400050004002460020B1F5007F9C
:100BB00000D100BF13880B400BB1012000E00020E2
:100BC0007047F0B50346002400260025002040F6BB
:100BD0006A17B94200D100BF1846C1F3421401F0B0
:100BE0001F06012707FA06F5012C01D10C3004E09D
:100BF000022C01D1103000E014301AB107682F43E5
:100C0000076002E00768AF430760F0BD2DE9F047D9
:100C100086B005460E460024A24600BFA146002726
:100C2000B08900B100BF2F462C8A4CF6FF700440FB
:100C3000F08804432C82AC894EF6F3100440B0884F
:100C400031890843718908430443AC81AC8A4FF66B
:100C5000FF400440B0890443AC8201A8FFF74EFC7A
:100C60001F48874202D1DDF810A001E0DDF80CA09A
:100C7000A88900F4004040B10AEBCA0000EB0A105A
:100C800031684900B0FBF1F807E00AEBCA0000EB5D
:100C90000A1031688900B0FBF1F86420B8FBF0F06D
:100CA00004012009642101FB1089A88900F4004097
:100CB00040B1322000EBC900B0FBF1F000F00700BA
:100CC000044308E0322000EB09106421B0FBF1F08E
:100CD00000F00F0004432C8106B0BDE8F08700004F
:100CE00000380140C1F30802828070471FB50446F6
:100CF0002448844204D101218803FFF7BFFB0EE0A2
:100D00002148844204D101214804FFF7B7FB06E0E3
:100D10001E48844203D101218804FFF7AFFB20461F
:100D2000FFF7F4FE4FF4E13000900020ADF80C0026
:100D30000C20ADF80A000020ADF80800ADF8060060
:100D4000ADF8040069462046FFF760FF40F22551E8
:100D50002046FFF7C5FE40F227712046FFF7C0FE90
:100D6000012240F225512046FFF72BFF012240F2DD
:100D700027712046FFF725FF01212046FFF7B9FE26
:100D80001FBD000000380140004400400048004002
:100D900070B504460D4600BF40212046FFF704FF12
:100DA0000028F9D029462046FFF79CFF70BD70B59A
:100DB00005460C4604E021782846FFF7E9FF641C4D
:100DC00020780028F7D170BD00BFFEE701B581B0E3
:100DD0000020009042F63C0101984843009002E058
:100DE0000098401E009000980028F9D10CBD00002A
:100DF000FFF72CFAFFF7BEFCFFF7D2FA0248FFF725
:100E000075FF00BFFEE70000004400402C0E000804
:100E1000000000201C00000028010008480E000807
:100E20001C0000206C0600004401000800000000C7
:100E3000000000000000000001020304010203049E
:080E4000060708090204060878
:04000005080000ED02
:00000001FF
