:020000040800F2
:100000006004002001010008C10500082F05000858
:1000100033050008F3010008591100080000000032
:10002000000000000000000000000000A107000820
:10003000F701000800000000490600088D080008CC
:100040001B0100081B0100081B0100081B01000820
:100050001B0100081B0100081B0100081B01000810
:100060001B0100081B0100081B0100081B01000800
:100070001B0100081B0100081B0100081B010008F0
:100080001B0100081B010008F10100081B0100080A
:100090001B0100081B0100081B0100081B010008D0
:1000A0001B010008850B00081B010008310B00082C
:1000B0001B0100081B010008B10B00081B01000810
:1000C0001B0100081B0100081B0100081B010008A0
:1000D0001B0100081B0100081B0100081B01000890
:1000E0001B0100081B0100081B010008DFF80CD0F1
:1000F00000F06CF8004800479D11000860040020E3
:100100000648804706480047FEE7FEE7FEE7FEE7B1
:10011000FEE7FEE7FEE7FEE7FEE7FEE791080008E0
:10012000ED000008C10F80EAE0700844CA0796237A
:10013000002100F01DB820F00040C10DC0F31600F2
:1001400040F400007F2901DA00207047962903DC83
:10015000C1F19601C8407047963988407047002920
:10016000A8BF7047401C490008BF20F0010070473D
:1001700010B4B0FA80FC00FA0CF050EA010404BF9D
:1001800010BC704749B1CCF1200421FA04F411FAF3
:100190000CF118BF012121430843A3EB0C01CB1D37
:1001A0004FEA00614FEA102042BF002010BC7047A8
:1001B00000EBC35010440029A4BF10BC7047401C82
:1001C000490008BF20F0010010BC7047064C074DE5
:1001D00006E0E06840F0010394E807009847103417
:1001E000AC42F6D3FFF786FF081200082812000879
:1001F000704700BFFEE7704710B50121042000F0F2
:1002000045FAC020044908800420C8700320887083
:10021000024800F08DF810BD0400002000080140E5
:1002200010B50121042000F011FA00201349488084
:10023000C8806320888041F61F4008800020087233
:1002400001210F4800F0DAFC012211460C4800F0B1
:1002500073FD01210A4800F0D7FC4FF4A06000F0C4
:10026000E9F91E20074908700120487000208870B5
:100270000120C870084600F0A5F910BD3800002024
:10028000000800400000002010B500202449C8806C
:1002900048804FF6FF70888000200880087221484F
:1002A00000F080FD002020490880C880022048809E
:1002B0000F200881012088801A4800F0E7FC022303
:1002C0001A460121174800F0ABFC0121154800F047
:1002D0009BFC0121134800F091FC012211461148BA
:1002E00000F02AFD4FF4E06000F0A4F91B200F4954
:1002F00008700020487088700120C870084600F01F
:1003000061F94FF4E06000F095F919200749087091
:10031000012048708870C870084600F053F910BD7D
:1003200038000020002C0140520000200000002076
:100330002DE9F0410246002500260020002300247C
:10034000002791F803C00CF00F0591F803C00CF0E2
:10035000100CBCF1000F03D091F802C04CEA050567
:1003600091F800C0BCF1000F31D0146800202BE0E0
:100370004FF0010C0CFA00F3B1F800C00CEA0306D0
:100380009E4220D183004FF00F0C0CFA03F7BC43C0
:1003900005FA03FC4CEA040491F803C0BCF1280FF1
:1003A00006D14FF0010C0CFA00FCC2F814C00AE0B0
:1003B00091F803C0BCF1480F05D14FF0010C0CFAC5
:1003C00000FCC2F810C0401C0828D1D31460B1F85A
:1003D00000C0BCF1FF0F34DD546800202EE000F1B6
:1003E000080C4FF0010808FA0CF3B1F800C00CEA51
:1003F00003069E4221D183004FF00F0C0CFA03F745
:10040000BC4305FA03FC4CEA040491F803C0BCF1B8
:10041000280F05D100F1080C08FA0CF8C2F8148076
:1004200091F803C0BCF1480F07D100F1080C4FF060
:10043000010808FA0CF8C2F81080401C0828CED336
:100440005460BDE8F0810246002093680B400BB178
:10045000012000E00020704708B50121084600F0A7
:1004600015F90121042000F011F94FF40070ADF8E6
:10047000000003208DF8020018208DF80300694663
:100480002748FFF755FF4FF48060ADF800000320C8
:100490008DF8020004208DF8030069462048FFF71C
:1004A00047FF0121042000F0F1F80420ADF800001E
:1004B00003208DF8020018208DF8030069461848C3
:1004C000FFF736FF0820ADF8000003208DF802008A
:1004D00004208DF8030069461148FFF729FF012128
:1004E000082000F0D3F84FF48060ADF8000003203E
:1004F0008DF8020018208DF8030069460848FFF7C0
:1005000017FF4FF40060ADF8000003208DF80200E3
:1005100004208DF8030069460148FFF709FF08BD74
:10052000000801400AB1016100E04161704700BF6D
:10053000FEE700BFFEE7000010B50121042000F037
:10054000A5F803201A4908801020C870032088707D
:100550001848FFF7EDFE0121042000F097F8042071
:10056000134908801820C870032088701148FFF7CD
:10057000DFFE0121082000F089F880200C49088066
:100580001020C870032088700B48FFF7D1FE0121AE
:10059000102000F07BF84FF400500549088010202F
:1005A000C870032088700548FFF7C2FE10BD000028
:1005B0000400002000080140000C01400010014030
:1005C0007047000070B5002100230F22C47804B3E7
:1005D000154C246804F4E064C4F5E064210AC1F118
:1005E0000403CA40447804FA03F184781440214398
:1005F00009010E4C0678A155047804F01F0501246A
:10060000AC4005786D11AD0005F1E025C5F800415D
:1006100009E0047804F01F050124AC40044D06787D
:10062000761145F8264070BD0CED00E000E400E0D6
:1006300080E100E002490143024A11607047000076
:100640000000FA050CED00E07047000029B1064AF1
:10065000D2690243044BDA6104E0034AD26982435F
:10066000014BDA61704700000010024029B1064AD0
:1006700012690243044B1A6104E0034A126982437F
:10068000014B1A61704700000010024029B1064A70
:1006900092690243044B9A6104E0034A92698243DF
:1006A000014B9A61704700000010024029B1064AD0
:1006B000D2680243044BDA6004E0034AD268824302
:1006C000014BDA60704700000010024030B5002195
:1006D0000022002400232D4D6D6805F00C0121B18E
:1006E000042905D0082923D105E0294D056022E021
:1006F000274D05601FE0254D6D6805F47012234DF0
:100700006D6805F48034022505EB92421CB9214D39
:10071000554305600BE01D4D6D6805F400351DB1B6
:100720001C4D5543056002E0194D5543056002E03C
:10073000174D056000BF00BF144D6D6805F0F00156
:100740000909154D6B5C0568DD4045600F4D6D680E
:1007500005F4E061090A104D6B5C4568DD40856079
:100760000A4D6D6805F46051C90A0B4D6B5C456814
:10077000DD40C560054D6D6805F44041890B074DAE
:100780006B5CC568B5FBF3F5056130BD0010024038
:1007900000127A0000093D002000002030000020F7
:1007A000704710B500F002F810BD00000CB5002035
:1007B000019000903348006840F48030314908606F
:1007C00000BF3048006800F4003000900198401CE1
:1007D0000190009818B90198B0F5A06FF1D129489F
:1007E000006800F4003010B10120009001E000200A
:1007F00000900098012843D12348006840F0100081
:10080000214908600846006820F003000860084697
:10081000006840F0020008601A48406819494860C2
:100820000846406848600846406840F48060486078
:100830000846406820F47C1048600846406840F450
:10084000E81048600846006840F08070086000BF0B
:100850000C48006800F000700028F9D00948406892
:1008600020F00300074948600846406840F0020055
:10087000486000BF0348406800F00C000828F9D128
:100880000CBD000000100240002002407047000034
:1008900010B51348006840F001001149086008468F
:1008A0004068104908400E494860084600680E49F3
:1008B00008400B4908600846006820F48020086062
:1008C0000846406820F4FE0048604FF41F0088602E
:1008D000FFF767FF4FF000600449086010BD00009B
:1008E000001002400000FFF8FFFFF6FE08ED00E0F8
:1008F000F0B50C46154600220021068C4FF6FE7717
:100900003E400684028B018C4FF60C7632407E1CF2
:1009100006EA03162E433243104EB0420ED0104E5C
:10092000B0420BD0B0F1804F08D00E4EB04205D08F
:100930000D4EB04202D00D4EB04206D14FF6FD76BC
:10094000314044F00106314305E04FF6F576314081
:1009500044F00106314302830184F0BD002C0140C4
:10096000003401400004004000080040000C00403A
:10097000F0B50C461546002200210026078C4FF6E4
:10098000EF7C07EA0C070784028B018C4FF6FF7798
:1009900007EA041640F6FF473A404FF6FF7707EAAA
:1009A00003373A434FF6FF7707EA05273A43114FDB
:1009B000B8420ED0104FB8420BD0B0F1804F08D0E3
:1009C0000E4FB84205D00E4FB84202D00D4FB8427C
:1009D00006D14FF6DF77394046F01007394305E07E
:1009E0004FF65F77394044F01007394302830184A2
:1009F000F0BD0000002C0140003401400004004024
:100A000000080040000C0040F0B50C4615460022DE
:100A100000210026078C4FF6FF6C07EA0C070784BD
:100A2000828B018C4FF6FF7707EA04264FF60C778E
:100A30003A404FF6FF7707EA03172F433A43114F27
:100A4000B8420ED0104FB8420BD0B0F1804F08D052
:100A50000E4FB84205D00E4FB84202D00D4FB842EB
:100A600006D14FF6FF57394046F48077394305E009
:100A70004FF2FF57394044F4807739438283018431
:100A8000F0BD0000002C0140003401400004004093
:100A900000080040000C0040F0B50C46154600224E
:100AA00000210026078C4EF6FF7C07EA0C0707841E
:100AB000828B018C4FF6FF7707EA043640F6FF473A
:100AC0003A404FF6FF7707EA05273A434FF6FF779C
:100AD00007EA03373A43114FB8420ED0104FB842DD
:100AE0000BD0B0F1804F08D00E4FB84205D00E4F5A
:100AF000B84202D00D4FB84206D14DF6FF773940CB
:100B000046F48057394305E047F6FF57394044F42F
:100B10008057394382830184F0BD0000002C0140DE
:100B2000003401400004004000080040000C004078
:100B300010B502210E4800F097F8C0B102210C4810
:100B400000F05FF80A4800F08CF80A4908800A486B
:100B500000680988084409490988401A084908605A
:100B6000002005490860034800880449088010BD3A
:100B7000002C014018000020100000201A00002066
:100B80001400002010B50121074800F06DF850B1A5
:100B90000121054800F035F8044800684FF6FF7160
:100BA00008440249086010BD002C014010000020DC
:100BB00010B50E4800880E4908800E4909880C4A75
:100BC0001288881AFFF7AEFA0446FFF7B4FA0A490A
:100BD0000880642000F0D1FA0548008805490880A3
:100BE000002008800149086010BD000014000020AA
:100BF00034000020360000201E000020CA4302827C
:100C00007047CA430282704721B1028842F0010254
:100C1000028004E002884FF6FE731A40028070479B
:100C2000F0B50C4615461E4600210022002301891E
:100C3000028B038C4FF6F877394021434FF6FC477F
:100C40003A4040F201173A434FF6DD773B404FF60A
:100C5000FF7707EA06172F433B4301810283038492
:100C6000F0BD0146888E704730B502460020002353
:100C70000024158A05EA0103958905EA010413B1E8
:100C80000CB1012000E0002030BD000070B5054629
:100C90000C46244885420ED0234885420BD0B5F13E
:100CA000804F08D02148854205D02148854202D096
:100CB0002048854200D100E000BF208850B9238938
:100CC000A28861882846FFF713FEE188284600F0D5
:100CD0003CF825E0208804280AD12389A28861886D
:100CE0002846FFF745FEE188284600F037F817E070
:100CF000208808280AD12389A28861882846FFF71E
:100D000083FEE188284600F036F809E02389A288AE
:100D100061882846FFF7C0FEE188284600F034F8D5
:100D200070BD0000002C0140003401400004004070
:100D300000080040000C00401AB183890B438381F6
:100D400002E083898B4383817047028B4FF6F373F4
:100D50001A400283028B0A4302837047028B4FF2D0
:100D6000FF331A400283028B4FF6FF7303EA01231D
:100D70001A4302837047828B4FF6F3731A408283C3
:100D8000828B0A4382837047828B4FF2FF331A4073
:100D90008283828B4FF6FF7303EA01231A43828317
:100DA00070470000002202881D4B98420ED01D4B58
:100DB00098420BD0B0F1804F08D01B4B984205D021
:100DC0001A4B984202D01A4B984204D14FF68F73B7
:100DD0001A404B881A43174B984207D0164B98423B
:100DE00004D04FF6FF431A40CB881A4302808B8809
:100DF00083850B8803850A4B98420BD0094B984298
:100E000008D00E4B984205D00D4B984202D00D4BA6
:100E1000984201D10B7A0386012383827047000038
:100E2000002C014000340140000400400008004054
:100E3000000C004000100040001400400040014041
:100E4000004401400048014070B504460D46322080
:100E500000F093F929462046FFF7F5FA80F00106E5
:100E6000324629462046FFF75DFB322000F085F927
:100E700070BD01F40072B2F5007F00D100BFCA431B
:100E80000280704721B1828942F40052828104E0DD
:100E900082894DF6FF731A408281704710B504466F
:100EA0002048844209D101218803FFF7FFFB00217C
:100EB0004FF48040FFF7FAFB32E01B48844209D12F
:100EC00001214804FFF7D2FB00214FF40030FFF767
:100ED000CDFB25E01548844209D101218804FFF7A4
:100EE000C5FB00214FF48020FFF7C0FB18E010483D
:100EF000844209D10121C804FFF7B8FB00214FF457
:100F00000020FFF7B3FB0BE00A48844208D101211F
:100F10000805FFF7ABFB00214FF48010FFF7A6FB9D
:100F200010BD00000038014000440040004800406F
:100F3000004C00400050004002460020B1F5007F08
:100F400000D100BF13880B400BB1012000E000204E
:100F50007047F0B50346002400260025002040F627
:100F60006A17B94200D100BF1846C1F3421401F01C
:100F70001F06012707FA06F5012C01D10C3004E009
:100F8000022C01D1103000E014301AB107682F4351
:100F9000076002E00768AF430760F0BD2DE9F04746
:100FA00086B005460E460024A24600BFA146002793
:100FB000B08900B100BF2F462C8A4CF6FF70044068
:100FC000F08804432C82AC894EF6F3100440B088BC
:100FD00031890843718908430443AC81AC8A4FF6D8
:100FE000FF400440B0890443AC8201A8FFF76EFBC8
:100FF0001F48874202D1DDF810A001E0DDF80CA007
:10100000A88900F4004040B10AEBCA0000EB0A10C6
:1010100031684900B0FBF1F807E00AEBCA0000EBC9
:101020000A1031688900B0FBF1F86420B8FBF0F0D9
:1010300004012009642101FB1089A88900F4004003
:1010400040B1322000EBC900B0FBF1F000F0070026
:10105000044308E0322000EB09106421B0FBF1F0FA
:1010600000F00F0004432C8106B0BDE8F0870000BB
:1010700000380140C1F30802828070471FB5044662
:101080002448844204D101218803FFF7DFFA0EE0EF
:101090002148844204D101214804FFF7D7FA06E031
:1010A0001E48844203D101218804FFF7CFFA20466D
:1010B000FFF7F4FE4FF4E13000900020ADF80C0093
:1010C0000C20ADF80A000020ADF80800ADF80600CD
:1010D000ADF8040069462046FFF760FF40F2255155
:1010E0002046FFF7C6FE40F227712046FFF7C1FEFB
:1010F000012240F225512046FFF72BFF012240F24A
:1011000027712046FFF725FF01212046FFF7BAFE91
:101110001FBD00000038014000440040004800406E
:1011200070B504460D4600BF40212046FFF704FF7E
:101130000028F9D029462046FFF79CFF70BD70B506
:1011400005460C4604E021782846FFF7E9FF641CB9
:1011500020780028F7D170BD00BFFEE702E008C884
:10116000121F08C1002AFAD170477047002001E021
:1011700001C1121F002AFBD1704701B581B00020C8
:10118000009042F63C0101984843009002E000982C
:10119000401E009000980028F9D10CBDFFF7CCF953
:1011A000FFF72AF8FFF770F8FFF756F90D48FFF739
:1011B00065FF15E080210C48FFF746FE6420FFF72D
:1011C000DCFF0AA10748FFF7BAFFFFF729F80D482F
:1011D00001780448FFF7A4FF4FF47A70FFF7CDFFC2
:1011E000E8E7000000440040000C0140456E636FDA
:1011F0006465722072656164696E672054657374FA
:10120000000000001E00002028120008000000203E
:10121000380000005C11000860120008380000204F
:10122000280400006C11000800000000000000000D
:1012300000000000000000000000000000000000AE
:101240000000000000000000000000000102030494
:101250000102030406070809020406080000000052
:04000005080000ED02
:00000001FF
