:020000040800F2
:1000000078060020890100084F0500084705000810
:100010004B050008450200083507000800000000F5
:10002000000000000000000000000000E5050008DE
:100030004902000800000000C1050008D1060008C0
:10004000A3010008A3010008A3010008A301000800
:10005000A3010008A3010008A3010008A3010008F0
:10006000A3010008A3010008A3010008A3010008E0
:10007000A3010008A3010008A3010008A3010008D0
:10008000A3010008A301000843020008A30100081F
:10009000A3010008A3010008A3010008A3010008B0
:1000A000A3010008A3010008A3010008A3010008A0
:1000B000A3010008A3010008A3010008A301000890
:1000C000A3010008A3010008A3010008A301000880
:1000D000A3010008A3010008A3010008A301000870
:1000E0004D020008A3010008A301000800F002F877
:1000F00000F03AF80AA090E8000C82448344AAF188
:100100000107DA4501D100F02FF8AFF2090EBAE885
:100110000F0013F0010F18BFFB1A43F0010318473B
:100120005C0600007C060000103A24BF78C878C145
:10013000FAD8520724BF30C830C144BF04680C60ED
:10014000704700000023002400250026103A28BF35
:1001500078C1FBD8520728BF30C148BF0B60704739
:100160001FB51FBD10B510BD00F031F81146FFF7E7
:10017000F7FF00F0F3FA00F04FF803B4FFF7F2FFD7
:1001800003BC00F057F800000948804709480047C1
:10019000FEE7FEE7FEE7FEE7FEE7FEE7FEE7FEE737
:1001A000FEE7FEE704480549054A064B7047000094
:1001B000D5060008ED000008780000207806002031
:1001C000780200207802002070477047704775461B
:1001D00000F02CF8AE4605006946534620F00700B3
:1001E000854618B020B5FFF7DDFFBDE820404FF091
:1001F00000064FF000074FF000084FF0000B21F011
:100200000701AC46ACE8C009ACE8C009ACE8C009DD
:10021000ACE8C0098D46704710B50446AFF30080C6
:100220002046BDE81040FFF7A8BF00000048704717
:100230001400002001491820ABBEFEE72600020092
:100240007047704700BFFEE77047000010B54FF4DD
:10025000006000F057F8B8B100240FE002210B480D
:1002600000F06FF9642000F067FA0221074800F0FF
:1002700066F9642000F060FA601CC4B20A2CEDDB61
:100280004FF400600249086010BD0000000C0140FE
:100290001404014010B50121042000F093F901215C
:1002A000084600F08FF948201249C8704FF40060EA
:1002B0000880114800F0B8F80B21002000F094F8F5
:1002C0004FF400600D490860002008710C2048714F
:1002D00001208871084600F029F828200849087094
:1002E0000F20487088700120C870084600F030F96F
:1002F00010BD0000000000200008014008000020A0
:1003000010000020014600200022074B1B6803EA72
:100310000102054B14331B680B4013B10AB10120D5
:1003200000E0002070470000000401400021234944
:100330008279002A3AD00A46126803689A430B462B
:100340001A600A1D126803689A430B1D1A6002792D
:1003500011440A6803681A430A60184A083212688E
:1003600003689A43154B08331A601A1D1268036814
:100370009A43124B0C331A604279102A0ED11A1F7D
:10038000126803681A430D4B08331A601A1D12686D
:1003900003681A43094B0C331A600DE00749427990
:1003A00011440A6803681A430A6005E0027911449F
:1003B0000A6803689A430A6070470000000401401D
:1003C00010B50121082000F0FDF803200449088041
:1003D00088701020C870034800F026F810BD000097
:1003E00000000020000C014030B500228B071C0FDC
:1003F0000F2303FA04F20B4B8C1053F82430934371
:10040000084C8D1044F8253023468C1053F82430C6
:100410008C07240F00FA04F42343024C8D1044F897
:10042000253030BD080001402DE9F041024600258D
:100430000026002000230024002791F803C00CF0C0
:100440000F0591F803C00CF0100CBCF1000F03D0A5
:1004500091F802C04CEA050591F800C0BCF1000F0C
:1004600031D0146800202BE04FF0010C0CFA00F39F
:10047000B1F800C00CEA03069E4220D183004FF081
:100480000F0C0CFA03F7BC4305FA03FC4CEA040416
:1004900091F803C0BCF1280F06D14FF0010C0CFA03
:1004A00000FCC2F814C00AE091F803C0BCF1480F88
:1004B00005D14FF0010C0CFA00FCC2F810C0401C32
:1004C0000828D1D31460B1F800C0BCF1FF0F34DDAF
:1004D000546800202EE000F1080C4FF0010808FAE3
:1004E0000CF3B1F800C00CEA03069E4221D1830050
:1004F0004FF00F0C0CFA03F7BC4305FA03FC4CEA6F
:10050000040491F803C0BCF1280F05D100F1080CD8
:1005100008FA0CF8C2F8148091F803C0BCF1480F37
:1005200007D100F1080C4FF0010808FA0CF8C2F8E6
:100530001080401C0828CED35460BDE8F081416192
:1005400070470161704700BFFEE700BFFEE77047DC
:1005500070B5002100230F22C47804B3154C246821
:1005600004F4E064C4F5E064210AC1F10403CA4064
:10057000447804FA03F184781440214309010E4CB5
:100580000678A155047804F01F050124AC400578D5
:100590006D11AD0005F1E025C5F8004109E00478D2
:1005A00004F01F050124AC40044D0678761145F88F
:1005B000264070BD0CED00E000E400E080E100E0CA
:1005C0007047000029B1064A92690243044B9A61C0
:1005D00004E0034A92698243014B9A61704700002C
:1005E00000100240704710B500F002F810BD000086
:1005F0000CB50020019000903348006840F4803032
:100600003149086000BF3048006800F400300090B5
:100610000198401C0190009818B90198B0F5A06F9E
:10062000F1D12948006800F4003010B10120009099
:1006300001E0002000900098012843D12348006881
:1006400040F01000214908600846006820F00300CF
:1006500008600846006840F0020008601A484068D8
:10066000194948600846406848600846406840F4B8
:10067000806048600846406820F47C104860084666
:10068000406840F4E81048600846006840F0807018
:10069000086000BF0C48006800F000700028F9D026
:1006A0000948406820F00300074948600846406850
:1006B00040F00200486000BF0348406800F00C00B2
:1006C0000828F9D10CBD00000010024000200240B3
:1006D0007047000010B51348006840F00100114950
:1006E000086008464068104908400E4948600846BE
:1006F00000680E4908400B4908600846006820F46D
:10070000802008600846406820F4FE0048604FF4EE
:100710001F008860FFF767FF4FF000600449086022
:1007200010BD0000001002400000FFF8FFFFF6FEC1
:1007300008ED00E000BFFEE701B581B000200090A9
:1007400042F63C0101984843009002E00098401EA8
:10075000009000980028F9D10CBD0000FFF730FE92
:10076000FFF798FD07E001210348FFF7EAFE0121AA
:100770000148FFF7E4FEF6E7000C01409C07000883
:10078000000000201400000028010008B007000845
:10079000140000206406000044010008000000006E
:1007A0000000000000000000000000000000000049
:040000050800018965
:00000001FF
