:020000040800F2
:100000003804002001010008C1060008670200084A
:10001000BD0600084B010008290900080000000087
:10002000000000000000000000000000D9070008E8
:100030004F01000800000000C3060008C5080008C2
:100040001B0100081B0100081B0100081B01000820
:100050001B0100081B0100081B0100081B01000810
:100060001B0100081B0100081B0100081B01000800
:100070001B0100081B0100081B0100081B010008F0
:100080001B0100081B010008490100081B010008B2
:100090001B0100081B0100081B0100081B010008D0
:1000A0001B0100081B0100081B0100081B010008C0
:1000B0001B0100081B0100081B0100081B010008B0
:1000C0001B0100081B0100081B0100081B010008A0
:1000D0001B0100081B0100081B0100081B01000890
:1000E0001B0100081B0100081B010008DFF80CD0F1
:1000F00000F018F800480047010A00083804002002
:100100000648804706480047FEE7FEE7FEE7FEE7B1
:10011000FEE7FEE7FEE7FEE7FEE7FEE7C9080008A8
:10012000ED000008064C074D06E0E06840F00103D2
:1001300094E8070098471034AC42F6D3FFF7DAFF93
:10014000400A0008600A0008704700BFFEE77047D9
:100150002DE9F0410246002500260020002300245E
:10016000002791F803C00CF00F0591F803C00CF0C4
:10017000100CBCF1000F03D091F802C04CEA050549
:1001800091F800C0BCF1000F31D0146800202BE0C2
:100190004FF0010C0CFA00F3B1F800C00CEA0306B2
:1001A0009E4220D183004FF00F0C0CFA03F7BC43A2
:1001B00005FA03FC4CEA040491F803C0BCF1280FD3
:1001C00006D14FF0010C0CFA00FCC2F814C00AE092
:1001D00091F803C0BCF1480F05D14FF0010C0CFAA7
:1001E00000FCC2F810C0401C0828D1D31460B1F83C
:1001F00000C0BCF1FF0F34DD546800202EE000F198
:10020000080C4FF0010808FA0CF3B1F800C00CEA32
:1002100003069E4221D183004FF00F0C0CFA03F726
:10022000BC4305FA03FC4CEA040491F803C0BCF19A
:10023000280F05D100F1080C08FA0CF8C2F8148058
:1002400091F803C0BCF1480F07D100F1080C4FF042
:10025000010808FA0CF8C2F81080401C0828CED318
:100260005460BDE8F08100BFFEE770B5024600248F
:10027000002500230020958A138B1B0445EA030602
:1002800026F07F4404EA01068E4201D1012000E0FD
:10029000002070BD21B1028842F00102028004E01A
:1002A00002884FF6FE731A400280704721B102881F
:1002B00042F48072028004E002884FF6FF631A4025
:1002C0000280704721B1028842F40072028004E08B
:1002D00002884FF6FF531A40028070470CB5024661
:1002E000002000230193009300920B0F019321F053
:1002F0007F41019B1BB1009B1433009303E0090C69
:10030000009B18330093009B1B680B400BB101202E
:1003100000E000200CBD00002DE9F04385B004464C
:100320000D460026B1460427DFF8CC80A6884FF69C
:10033000C0700640684600F0E5F9DDF808802F48F7
:10034000B8FBF0F01FFA80F946EA0906A68020887B
:100350004FF6FE710840208000262949286888420F
:100360000CD828684000B8FBF0F087B2042F00DA00
:1003700004273E4309F10100208427E0E8884BF67A
:10038000FF71884206D1286800EB4000B8FBF0F00E
:1003900087B209E0286800EBC00101EB0010B8FB50
:1003A000F0F087B247F48047C7F30B0008B947F075
:1003B000010747F4004006434FF4967009FB00F034
:1003C0004FF47A7190FBF1F0401C2084A6832088C2
:1003D00040F00100208026884FF6F5300640A888BE
:1003E0006989084306432680A88929890843208112
:1003F00005B0BDE8F083000000127A0040420F0013
:10040000A086010012B141F0010102E04FF6FE7337
:1004100019400182704701827047000070B506469E
:100420000C46154600BF4FF400313046FFF756FF2B
:100430000028F8D101213046FFF738FF00BF0F49EF
:100440003046FFF712FF0028F9D06806010E224659
:100450003046FFF7D7FF34B900BF09493046FFF7F0
:1004600004FF0028F9D0012C07D100BF0349491C23
:100470003046FFF7FAFE0028F8D070BD01000300F7
:100480008200070070B504460D4629462046FFF756
:10049000C2FF00BF03492046FFF7E7FE0028F9D05E
:1004A00070BD00008400070010B508200249C87123
:1004B000002000F06DF810BD1400002070B5054656
:1004C0000C46012C05DD2148407840F008001F490A
:1004D00048701E480471322000F037FA1B49C87971
:1004E00000F056F84FF47A7000F02FFA302000F048
:1004F000B8F841F2941000F039FA302000F0B1F869
:1005000041F2941000F032FA302000F0AAF8962060
:1005100000F02CFA202000F0A4F80C49497841F0B2
:10052000200000F01EF804200849887000F020F830
:1005300000F00EF802200549C870C97841F00400A7
:1005400000F00FF800F03CF870BD0000140000202F
:1005500010B5012000F005F840F6B83000F006FABA
:1005600010BD10B504460021204600F043F810BD30
:1005700010B50648807840F00400044988708978F6
:1005800041F00800FFF7EDFF10BD0000140000204F
:1005900010B504460848027800210848FFF73EFFDE
:1005A0000548C07940EA04010448FFF76BFF0121C8
:1005B0000248FFF787FE10BD1400002000540040E1
:1005C00010B50220FFF7CDFF40F6B83000F0CEF9AD
:1005D00010BD10B5044644F00400FFF7D9FF012018
:1005E00000F0C4F924F00400FFF7D2FF322000F03D
:1005F000BDF910BD2DE9F04104460D4604F0F006AA
:10060000F02000EA041746EA050000F02AF847EA5D
:10061000050000F026F8BDE8F08100007FB5054632
:100620000C460A4B0FCB8DE80F0009480079A04219
:1006300003DA07480079401EC4B21DF8241029448B
:10064000C9B241F08000FFF78CFF7FBD300A00087F
:100650001400002010B5044601212046FFF7CAFF10
:1006600010BD10B504462046FFF792FF2046FFF765
:10067000B0FF10BD70B50446002504E0605DFFF7D3
:10068000E9FF681CC5B2605D0028F7D170BD0000AD
:1006900010B53F2008490870142048710420887163
:1006A0000020C87100F074F900200349487004214B
:1006B0001420FFF703FF10BD1400002000BFFEE769
:1006C0007047704729B1064AD2690243044BDA6188
:1006D00004E0034AD2698243014BDA6170470000AB
:1006E0000010024029B1064A92690243044B9A6104
:1006F00004E0034A92698243014B9A61704700000B
:100700000010024030B500210022002400232D4DAE
:100710006D6805F00C0121B1042905D0082923D109
:1007200005E0294D056022E0274D05601FE0254DBD
:100730006D6805F47012234D6D6805F48034022550
:1007400005EB92421CB9214D554305600BE01D4D50
:100750006D6805F400351DB11C4D5543056002E080
:10076000194D5543056002E0174D056000BF00BFFD
:10077000144D6D6805F0F0010909154D6B5C0568B5
:10078000DD4045600F4D6D6805F4E061090A104DCC
:100790006B5C4568DD4085600A4D6D6805F460510D
:1007A000C90A0B4D6B5C4568DD40C560054D6D6841
:1007B00005F44041890B074D6B5CC568B5FBF3F54B
:1007C000056130BD0010024000127A0000093D00B2
:1007D0000000002010000020704710B500F002F863
:1007E00010BD00000CB50020019000903348006857
:1007F00040F480303149086000BF3048006800F4A0
:10080000003000900198401C0190009818B90198A0
:10081000B0F5A06FF1D12948006800F4003010B1A4
:100820000120009001E0002000900098012843D1B1
:100830002348006840F0100021490860084600681D
:1008400020F0030008600846006840F002000860DD
:100850001A48406819494860084640684860084698
:10086000406840F4806048600846406820F47C108E
:1008700048600846406840F4E81048600846006850
:1008800040F08070086000BF0C48006800F0007005
:100890000028F9D00948406820F003000749486063
:1008A0000846406840F00200486000BF03484068C6
:1008B00000F00C000828F9D10CBD00000010024027
:1008C000002002407047000010B51348006840F057
:1008D00001001149086008464068104908400E4967
:1008E0004860084600680E4908400B490860084601
:1008F000006820F4802008600846406820F4FE006C
:1009000048604FF41F008860FFF767FF4FF00060FA
:100910000449086010BD0000001002400000FFF80C
:10092000FFFFF6FE08ED00E000BFFEE702E008C8AA
:10093000121F08C1002AFAD170477047002001E059
:1009400001C1121F002AFBD1704701B581B0002000
:10095000009042F63C0101984843009002E0009864
:10096000401E009000980028F9D10CBD01B581B05F
:1009700000200090019800EB400101EBC0000090C6
:1009800002E00098401E009000980028F9D10CBDAC
:1009900010B501210820FFF7A5FE01210846FFF749
:1009A000A1FE01214805FFF78DFE1048104908609F
:1009B000002088804BF6FF70C880152008814FF416
:1009C00080604881000188810A48FFF7A5FCC020AB
:1009D000094908801C20C870032088700748FFF769
:1009E000B7FB01210348FFF755FC10BDA0860100AD
:1009F000280000200054004020000020000C01408E
:100A0000FFF746FEFFF750FD00210220FFF706FE2C
:100A100002A0FFF72FFE00BFFEE700004341505346
:100A2000544F4E452050524F4A4543540000000059
:100A3000000000004000000014000000540000000E
:100A4000600A000800000020280000002C090008AF
:100A5000880A000828000020100400003C09000853
:100A60000000000001020304010203040607080954
:100A70000204060800000000000000000000000062
:080A800000000000000000006E
:04000005080000ED02
:00000001FF
