:020000040800F2
:100000002804002001010008B5030008AD03000822
:10001000B10300084B010008290700080000000098
:10002000000000000000000000000000590400086B
:100030004F010008000000001504000855050008E5
:100040001B0100081B0100081B0100081B01000820
:100050001B0100081B0100081B0100081B01000810
:100060001B0100081B0100081B0100081B01000800
:100070001B0100081B0100081B0100081B010008F0
:100080001B0100081B010008490100081B010008B2
:100090001B0100081B0100081B0100081B010008D0
:1000A0001B0100081B0100081B0100081B010008C0
:1000B0001B0100081B0100081B0100081B010008B0
:1000C0001B0100081B0100081B0100081B010008A0
:1000D0001B0100081B0100081B0100081B01000890
:1000E000510100081B0100081B010008DFF80CD0BB
:1000F00000F018F8004800476D07000828040020A9
:100100000648804706480047FEE7FEE7FEE7FEE7B1
:10011000FEE7FEE7FEE7FEE7FEE7FEE7590500081B
:10012000ED000008064C074D06E0E06840F00103D2
:1001300094E8070098471034AC42F6D3FFF7DAFF93
:10014000B0070008D0070008704700BFFEE77047FF
:1001500010B54FF4006000F01FF8B8B100240FE0B4
:1001600002210B4800F006F9642000F0EEFA0221AB
:10017000074800F0FDF8642000F0E7FA601CC4B204
:100180000A2CEDDB4FF400600249086010BD00004E
:10019000000C014014040140014600200022074BDE
:1001A0001B6803EA0102054B14331B680B4013B1B3
:1001B0000AB1012000E00020704700000004014067
:1001C00010B50121042000F037F903201A490880F6
:1001D0001020C87003208870184800F035F80121FD
:1001E000042000F029F90420134908801820C87061
:1001F00003208870114800F027F80121082000F042
:100200001BF980200C4908801020C87003208870DA
:100210000B4800F019F80121102000F00DF94FF4FF
:100220000050054908801020C870032088700548D8
:1002300000F00AF810BD0000000000200008014096
:10024000000C0140001001402DE9F041024600255C
:100250000026002000230024002791F803C00CF0A2
:100260000F0591F803C00CF0100CBCF1000F03D087
:1002700091F802C04CEA050591F800C0BCF1000FEE
:1002800031D0146800202BE04FF0010C0CFA00F381
:10029000B1F800C00CEA03069E4220D183004FF063
:1002A0000F0C0CFA03F7BC4305FA03FC4CEA0404F8
:1002B00091F803C0BCF1280F06D14FF0010C0CFAE5
:1002C00000FCC2F814C00AE091F803C0BCF1480F6A
:1002D00005D14FF0010C0CFA00FCC2F810C0401C14
:1002E0000828D1D31460B1F800C0BCF1FF0F34DD91
:1002F000546800202EE000F1080C4FF0010808FAC5
:100300000CF3B1F800C00CEA03069E4221D1830031
:100310004FF00F0C0CFA03F7BC4305FA03FC4CEA50
:10032000040491F803C0BCF1280F05D100F1080CBA
:1003300008FA0CF8C2F8148091F803C0BCF1480F19
:1003400007D100F1080C4FF0010808FA0CF8C2F8C8
:100350001080401C0828CED35460BDE8F0810246CE
:10036000002093680B400BB1012000E00020704793
:1003700041617047016170470AB1016100E041616C
:100380007047000010B502210748FFF7F3FF012175
:100390000548FFF7EDFF052000F00EF84FF4FA6076
:1003A00000F0D3F910BD00000008014000BFFEE7D7
:1003B00000BFFEE77047000010B504460121084663
:1003C00000F02AF841F61F40104908800920888073
:1003D0000020C88048804FF0804000F053F9602032
:1003E0000B4908800120488000204881601EC88099
:1003F0004FF0804000F0ECF80821C80600F038F912
:100400000121880700F0D8F810BD00000C00002082
:10041000160000207047000029B1064AD269024345
:10042000044BDA6104E0034AD2698243014BDA618A
:10043000704700000010024029B1064A9269024349
:10044000044B9A6104E0034A92698243014B9A612A
:100450007047000000100240704710B500F002F82D
:1004600010BD00000CB500200190009033480068DA
:1004700040F480303149086000BF3048006800F423
:10048000003000900198401C0190009818B9019824
:10049000B0F5A06FF1D12948006800F4003010B128
:1004A0000120009001E0002000900098012843D135
:1004B0002348006840F010002149086008460068A1
:1004C00020F0030008600846006840F00200086061
:1004D0001A4840681949486008464068486008461C
:1004E000406840F4806048600846406820F47C1012
:1004F00048600846406840F4E810486008460068D4
:1005000040F08070086000BF0C48006800F0007088
:100510000028F9D00948406820F0030007494860E6
:100520000846406840F00200486000BF0348406849
:1005300000F00C000828F9D10CBD000000100240AA
:100540000020024010B503210148FFF711FF10BD44
:10055000000801407047000010B51348006840F0E3
:1005600001001149086008464068104908400E49DA
:100570004860084600680E4908400B490860084674
:10058000006820F4802008600846406820F4FE00DF
:1005900048604FF41F008860FFF75FFF4FF0006076
:1005A0000449086010BD0000001002400000FFF880
:1005B000FFFFF6FE08ED00E021B1028842F00102E3
:1005C000028004E002884FF6FE731A4002807047F2
:1005D00070B5002400220023058C4FF6FF663540DD
:1005E0000584028C8388848B4FF68F752C404FF6E0
:1005F000FC752C400D882C434FF6FF552A400D8981
:100600004FF6FF7606EA05252A434D8806EA0525BA
:100610002A43154DA84202D0144DA8421DD14FF2D5
:10062000FF752A404D894FF6FF7606EA05252A43D5
:100630004FF6FF352A408D8806EA05252A434EF6F7
:10064000FF752B404DF6FF752B408D8906EA051589
:100650002B43CD8906EA05152B4383808483CD88FF
:100660008587028470BD0000002C014000340140E9
:100670000A460021818B4FF6F7731940114381839D
:1006800070470000002202881D4B98420ED01D4B7F
:1006900098420BD0B0F1804F08D01B4B984205D048
:1006A0001A4B984202D01A4B984204D14FF68F73DE
:1006B0001A404B881A43174B984207D0164B984262
:1006C00004D04FF6FF431A40CB881A4302808B8830
:1006D00083850B8803850A4B98420BD0094B9842BF
:1006E00008D00E4B984205D00D4B984202D00D4BCE
:1006F000984201D10B7A0386012383827047000060
:10070000002C01400034014000040040000800407B
:10071000000C004000100040001400400040014068
:10072000004401400048014000BFFEE702E008C865
:10073000121F08C1002AFAD170477047002001E05B
:1007400001C1121F002AFBD1704701B581B0002002
:10075000009042F63C0101984843009002E0009866
:10076000401E009000980028F9D10CBDFFF728FD2D
:10077000012280210C48FFF7FFFD14E0FFF702FE85
:100780004FF400410948FFF7EAFD60B980210648AF
:10079000FFF7E5FD80F00104224680210248FFF7C3
:1007A000EBFDFFF7CFFEE9E7000C01400008014038
:1007B000D0070008000000200C0000002C070008F3
:1007C000DC0700080C0000201C0400003C070008A7
:0C07D0000000000000000000000000001D
:04000005080000ED02
:00000001FF
