:020000040800F2
:1000000088040020010100080F0A0008070A000800
:100010000B0A0008910800081312000800000000F5
:10002000000000000000000000000000D90A0008E5
:100030009508000800000000950A0008C50B00089C
:100040001B0100081B0100081B0100081B01000820
:100050001B0100081B0100081B0100081B01000810
:100060001B0100081B0100081B0100081B01000800
:100070001B0100081B0100081B0100081B010008F0
:100080001B0100081B0100081B0100081B010008E0
:100090001B0100081B0100081B0100081B010008D0
:1000A0001B0100081B0100081B0100081B010008C0
:1000B0001B0100081B0100081D0D00081B010008A2
:1000C0001B0100081B0100081B0100081B010008A0
:1000D0001B0100081B0100081B0100081B01000890
:1000E0001B0100081B0100081B010008DFF80CD0F1
:1000F00000F02EFB00480047111B00088804002078
:100100000648804706480047FEE7FEE7FEE7FEE7B1
:10011000FEE7FEE7FEE7FEE7FEE7FEE7C90B0008A5
:10012000ED000008F0B480EA0102D40F4200B2EB07
:10013000410F02D20246084611464A0042D0C30D82
:10014000DDB2C1F3C752AD1A202D35DAC1F3160165
:1001500041F4000204B15242C5F1200602FA06F150
:100160002A411044B3EBD05F23D0C4B1012DA0EBE2
:10017000C35009DCF0BC4FF0004202EAC352DBB2CC
:1001800000F5000000F0FEB8400000F1807000EBC8
:10019000C350A0F1807040EAD170490009E04908DD
:1001A00041EAC071A0EBC35000F50000400800EB2D
:1001B000C350F0BC00F0DDB86142012202EB410106
:1001C000001BF6E7F0BC704781F00041AAE780F021
:1001D0000040A7E780EA010210B502F000434000AA
:1001E00022D04A001FD0010E01EB1261C0F356006D
:1001F000C2F3560240F4000042F40002A0FB0220C9
:1002000000047F39140400D0401C50EA124001D48D
:100210004000491EC2B20C0604EBD010401C40083E
:10022000802A02D003E0002010BD20F00100002948
:1002300000DA0020184310BD30B480EA010202F059
:10024000004530F0004221F0004013D090B1C30DC2
:10025000D40DC2F31601C0F31600E41A41F40001F4
:1002600040F400027D34914201D3641C00E0490057
:10027000002C02DA30BC002070474FF4000000234D
:10028000914201D3891A034340084FEA4101F7D153
:1002900051B1914202D14FF0004105E002D24FF03E
:1002A000010101E06FF0010103EBC450284430BCB0
:1002B00000F05FB896230022114600F063B800F00A
:1002C000004230F000400AD0C10D01F56071C0F36A
:1002D000160042EA0151C20840071143704700204E
:1002E0000146704730B50B4601460020202201240C
:1002F00009E021FA02F59D4205D303FA02F5491BF4
:1003000004FA02F52844151EA2F10102F1DC30BD09
:100310002DE9F05F0546002092469B46884606463A
:10032000814640241BE0284641464746224600F0CD
:1003300030FA53465A46C01A914110D31146184616
:10034000224600F017FA2D1A67EB01084F462246A5
:100350000120002100F00EFA17EB00094E41201E8B
:10036000A4F10104DFDC484631462A464346BDE895
:10037000F09F0029A8BF7047401C490008BF20F02B
:100380000100704710B4B0FA80FC00FA0CF050EA9B
:10039000010404BF10BC704749B1CCF1200421FA1C
:1003A00004F411FA0CF118BF012121430843A3EB17
:1003B0000C01CB1D4FEA00614FEA102042BF002024
:1003C00010BC704700EBC35010440029A4BF10BC00
:1003D0007047401C490008BF20F0010010BC704766
:1003E0002DE9FE4F804681EA0300C00F0C460090C5
:1003F00021F0004123F00045B8EB0200A94105D2ED
:100400004046214690461C460B46024623F00040DB
:10041000104347D0270DC7F30A00C3F30A510290D7
:10042000401A019040286BDAC3F3130040F4801B9C
:100430000098924620B10023D2EB030A63EB0B0B2A
:1004400001985946C0F14002504600F093F9064623
:100450000D4650465946019A00F0ABF910EB0800E2
:100460006141002487EA115284EAE7731A4340D0BD
:10047000009A62B3019A012A4FEA075215DC001B69
:1004800061EB02014FF0004202EA0752CDE900425F
:10049000001C41F5801132462B4600F0ABF903B049
:1004A000BDE8F08F40462146F9E7001B61EB0201F1
:1004B000001C41F5801300185B412018A2F50017BD
:1004C00047EB030140EAD570B6196D4111E06D08A4
:1004D0004FEA360645EAC0754FEA0752001B61EB4A
:1004E0000201001C41F5801149084FEA3000001953
:1004F000514132462B4603B0BDE8F04F00F06BB9D6
:100500000098012240000023D0EB020263EBE0736D
:10051000009821464FEAE074B8EB000061EB04015B
:10052000E9E783F000435BE781F0004158E72DE9FC
:10053000FE4F81EA030404F0004421F000410094DE
:100540004FF0000B23F0004350EA01045ED052EA62
:1005500003045BD0C3F30A54C1F30A552C44A4F23C
:10056000F3340194A0FB0254C1F3130141F4801150
:10057000C3F3130343F4801301FB024400FB034E57
:10058000840A970A44EA815447EA8357A4FB076820
:1005900002958D0A05FB07854FEA932C04FB0C544A
:1005A0002705029D4FEA065847EA1637B5EB0805BE
:1005B0006EEB070C870E920E47EA811742EA831210
:1005C000A7FB0201B6EB0B0164EB00042B0D43EA21
:1005D0000C335E1844EB1C50DA465146E7FB02012F
:1005E000C5F313044FEA0B3343EA14534FEA0432C2
:1005F000019C43EA0603A4F10C040294009CCDE99B
:1006000000B400F0F7F803B0BDE8F08F0020014619
:10061000F9E72DE9F04D81EA030404F0004B21F0E5
:10062000004514464FF0000A23F0004150EA05024D
:1006300020D054EA01021DD0C5F30A570246C5F383
:100640001303C1F31300C1F30A5640F4801543F4B9
:100650008013A7EB0608101BD64608F2FD3873EB93
:10066000050002D308F1010801E092185B41B8F1DE
:10067000000F03DA00200146BDE8F08D00204FF4A2
:100680008011064684460EE0171B73EB050705D361
:10069000121B63EB050306434CEA010C49084FEAC1
:1006A000300092185B4150EA0107EDD152EA030095
:1006B00012D082EA040083EA0501084305D0101B2A
:1006C000AB4106D20122002306E000224FF0004396
:1006D00002E06FF0010253101AEB06004CEB0851D8
:1006E00010EB0A0041EB0B01BDE8F04D00F073B8D0
:1006F000C1F30A52C1F3130140F2FF3341F48011F8
:100700009A4202DA00200146704740F233439A428F
:10071000A2F2334202DC524200F03BB800F02AB8A9
:1007200030B5041E71F1000404DB4FF00044404278
:1007300064EB0101141E73F1000405DB1C464FF04D
:100740000043524263EB0403994208BF904230BD1C
:10075000064C074D06E0E06840F0010394E807000E
:1007600098471034AC42F6D3FFF7C4FCEC1B0008EA
:100770000C1C0008202A04DB203A00FA02F10020B9
:1007800070479140C2F1200320FA03F319439040CF
:100790007047202A04DB203A21FA02F0002170473A
:1007A00021FA02F3D040C2F12002914008431946D9
:1007B0007047202A06DBCB17203A41FA02F043EAC1
:1007C000E07306E041FA02F3D040C2F1200291400A
:1007D00008431946704710B5141E73F1000408DA77
:1007E000401C41F1000192185B411A4301D120F0F5
:1007F000010010BD2DE9F04D92469B4611B1B1FAB2
:1008000081F202E0B0FA80F220329046FFF7B2FFA8
:1008100004460F4640EA0A0041EA0B0153465A4695
:10082000084313D0114653EA010019D0C8F1400221
:100830005046FFF7AEFF05460E4650465946424623
:10084000FFF798FF084305D0012004E02046394611
:10085000BDE8F08D0020054346EAE0762C4337439F
:100860000A986305E40AA0EB08000022FD0A44EAA6
:1008700047540A3002D500200146E9E70105101966
:100880006941DDE9084500196941BDE8F04DA2E77D
:1008900000BFFEE77047014642F6E06201FB02F04E
:1008A00000E0401E0028FCD17047000010B5012177
:1008B000082000F001F98020044908800320887096
:1008C0001020C870024800F005F810BD000000209C
:1008D000000C01402DE9F0410246002500260020D1
:1008E00000230024002791F803C00CF00F0591F8B5
:1008F00003C00CF0100CBCF1000F03D091F802C043
:100900004CEA050591F800C0BCF1000F31D0146825
:1009100000202BE04FF0010C0CFA00F3B1F800C0FE
:100920000CEA03069E4220D183004FF00F0C0CFA14
:1009300003F7BC4305FA03FC4CEA040491F803C036
:10094000BCF1280F06D14FF0010C0CFA00FCC2F8E4
:1009500014C00AE091F803C0BCF1480F05D14FF074
:10096000010C0CFA00FCC2F810C0401C0828D1D3BE
:100970001460B1F800C0BCF1FF0F34DD54680020F2
:100980002EE000F1080C4FF0010808FA0CF3B1F862
:1009900000C00CEA03069E4221D183004FF00F0CE9
:1009A0000CFA03F7BC4305FA03FC4CEA040491F883
:1009B00003C0BCF1280F05D100F1080C08FA0CF8AF
:1009C000C2F8148091F803C0BCF1480F07D100F1C0
:1009D000080C4FF0010808FA0CF8C2F81080401C0F
:1009E0000828CED35460BDE8F08102460020936809
:1009F0000B400BB1012000E0002070470AB10161FB
:100A000000E04161704700BFFEE700BFFEE77047AE
:100A100070B5002100230F22C47804B3154C24685C
:100A200004F4E064C4F5E064210AC1F10403CA409F
:100A3000447804FA03F184781440214309010E4CF0
:100A40000678A155047804F01F050124AC40057810
:100A50006D11AD0005F1E025C5F8004109E004780D
:100A600004F01F050124AC40044D0678761145F8CA
:100A7000264070BD0CED00E000E400E080E100E005
:100A800002490143024A1160704700000000FA0564
:100A90000CED00E07047000029B1064AD26902431C
:100AA000044BDA6104E0034AD2698243014BDA6104
:100AB000704700000010024029B1064A92690243C3
:100AC000044B9A6104E0034A92698243014B9A61A4
:100AD0007047000000100240704710B500F002F8A7
:100AE00010BD00000CB50020019000903348006854
:100AF00040F480303149086000BF3048006800F49D
:100B0000003000900198401C0190009818B901989D
:100B1000B0F5A06FF1D12948006800F4003010B1A1
:100B20000120009001E0002000900098012843D1AE
:100B30002348006840F0100021490860084600681A
:100B400020F0030008600846006840F002000860DA
:100B50001A48406819494860084640684860084695
:100B6000406840F4806048600846406820F47C108B
:100B700048600846406840F4E8104860084600684D
:100B800040F08070086000BF0C48006800F0007002
:100B90000028F9D00948406820F003000749486060
:100BA0000846406840F00200486000BF03484068C3
:100BB00000F00C000828F9D10CBD00000010024024
:100BC000002002407047000010B51348006840F054
:100BD00001001149086008464068104908400E4964
:100BE0004860084600680E4908400B4908600846FE
:100BF000006820F4802008600846406820F4FE0069
:100C000048604FF41F008860FFF767FF4FF00060F7
:100C10000449086010BD0000001002400000FFF809
:100C2000FFFFF6FE08ED00E010B50121C802FFF756
:100C300043FF01210C20FFF73FFF4FF4C060314913
:100C400008801820C870032088702F48FFF742FEE4
:100C50004FF440402B4908801820C870032088704A
:100C60002A48FFF737FE41F61F4029490880002037
:100C700048804FF47A7088800020C8800872254828
:100C800000F064FA60202449088001204880042094
:100C900088804FF4FA70C8800020088148818881DC
:100CA000C8811C4800F086F960220421194800F030
:100CB00023FA01220421174800F02AF904221146E0
:100CC000144800F034F94FF42F701349C8801148CC
:100CD00000F0C2F9602208210E4800F00DFA01224E
:100CE00008210C4800F014F904220821094800F0FA
:100CF0001EF90121074800F02CF90121054800F0F8
:100D000034F910BD0000002000080140000C014033
:100D10004C000020002C01406800002070B501212B
:100D2000514800F034F9012875D101214E4800F0F6
:100D30000DF94FF0804000F027F94C4908444C4928
:100D400009684FF4803202FB01004A4908604A48B2
:100D500000F01AF945490844484909684FF48032BF
:100D600002FB0100464908604248006845490860A6
:100D7000434800684449086042480068434909689C
:100D8000884211D93F490968404A1268881AFFF71A
:100D900091FA05463E49FFF71DFA04463D49FFF723
:100DA0004BFA3D4908601EE036480068374909683B
:100DB000884215D235490968324A1268881AFFF705
:100DC00079FA06463249FFF705FA05463149FFF739
:100DD00033FA04460021FFF7FAF92F49086002E0D0
:100DE00000202D490860284800682C49096888427D
:100DF00012D925490968294A1268881AFFF75AFA50
:100E000005462349FFF7E6F904462249FFF714FA9D
:100E1000234908601FE026E01B4800681F49096855
:100E2000884215D21D490968174A1268881AFFF7C7
:100E300041FA06461649FFF7CDF905461549FFF771
:100E4000FBF904460021FFF7C2F91549086002E0EA
:100E50000020134908600B4800680C4908600A48E4
:100E600000680E49086070BD000800400065CD1D97
:100E700010000020080000200004004014000020A2
:100E80000C0000201C000020200000202400002076
:100E90000080BB450000AA422C0000202800002052
:100EA0003000002010B501210420FFF7F5FD63207C
:100EB0001449888041F61F4008800020C88048807F
:100EC000114800F043F901210F4800F03FF80121DB
:100ED0000D4800F03EF8012211460B4800F060F882
:100EE0004FF4A060FFF7CCFD1E20084908700120D8
:100EF0004870002088700120C8700846FFF788FD00
:100F000010BD00004C00002000080040040000203C
:100F100030B5002301248C40A3B2048C9C4304848C
:100F2000048C02FA01F5ADB22C43048430BD30B517
:100F3000002304248C40A3B2048C9C430484048CBE
:100F400002FA01F5ADB22C43048430BDCA430282DB
:100F5000704721B1028842F00102028004E0028859
:100F60004FF6FE731A400280704731B1B0F844204A
:100F700042F40042A0F8442005E0B0F84420C2F357
:100F80000E02A0F8442070470146888C7047024644
:100F90000020138A0B400BB1012000E000207047B5
:100FA0001AB183890B43838102E083898B43838158
:100FB0007047000070B5002400220023058C4FF616
:100FC000EF7635400584028C8388048B48F6FF75E4
:100FD0002C404FF6FF452C400D884FF6FF7606EA71
:100FE00005252C434FF6DF752A400D8906EA0515C5
:100FF0002A434D8806EA05152A43154DA84202D01A
:10100000144DA8421DD14FF67F752A404D894FF6E9
:10101000FF7606EA05152A434FF6BF752A408D88EC
:1010200006EA05152A434FF6FF352B404FF2FF75B0
:101030002B408D8906EA85052B43CD8906EA850577
:101040002B4383800483CD880587028470BD000014
:10105000002C01400034014070B500240022002320
:10106000058C4FF6FF6635400584028C8388848B9F
:101070004FF68F752C404FF6FC752C400D882C4395
:101080004FF6FF552A400D894FF6FF7606EA0525F3
:101090002A434D8806EA05252A43154DA84202D069
:1010A000144DA8421DD14FF2FF752A404D894FF6CD
:1010B000FF7606EA05252A434FF6FF352A408D883C
:1010C00006EA05252A434EF6FF752B404DF6FF75BF
:1010D0002B408D8906EA05152B43CD8906EA0515B7
:1010E0002B4383808483CD888587028470BD000074
:1010F000002C01400034014070B50346002000245C
:101100001846183001258D40ACB21D8CA5431D84B6
:1011100009B1082909D100EB6100056825F07005C7
:1011200005600568154305600EE00D1FC5F34E050B
:101130002844056825F4E045056005684FF6FF760C
:1011400006EA02263543056070BD000000220288D1
:101150001D4B98420ED01D4B98420BD0B0F1804FE2
:1011600008D01B4B984205D01A4B984202D01A4B1C
:10117000984204D14FF68F731A404B881A43174B8D
:10118000984207D0164B984204D04FF6FF431A40BE
:10119000CB881A4302808B8883850B8803850A4B92
:1011A00098420BD0094B984208D00E4B984205D07C
:1011B0000D4B984202D00D4B984201D10B7A038619
:1011C0000123838270470000002C0140003401405D
:1011D0000004004000080040000C004000100040E7
:1011E000001400400040014000440140004801401C
:1011F00002460020B1F5007F00D100BF13880B40EC
:101200000BB1012000E000207047C1F3080282808A
:10121000704700BFFEE700000FB4054B10B503A9EF
:10122000044A029800F0CAF810BC5DF814FB0000F4
:10123000ED1A00084800002002E008C8121F08C18B
:10124000002AFAD170477047002001E001C1121F47
:10125000002AFBD1704700002DE9FF5FDDE9022085
:10126000010DDDF838B0024318D044F61050A1F259
:10127000FF3141430D140F98012820D0A5EB0B003E
:10128000401C5FEA000A4FF00004474EDFF81C9153
:10129000A046504616D5CAF1000728E00F98012451
:1012A00043A2012808D0002100980F9BC0E900212B
:1012B000C0E90243BDE8FF9F6FEA0B01F4E7CBF101
:1012C0000000DEE7074612E0F80707D02246334663
:1012D00040464946FFF72BF9804689462246334669
:1012E00010461946FFF723F904460E467F10002FDB
:1012F000EAD1DDE90201BAF1000F42464B4602DABB
:10130000FFF715F901E0FFF784F904460E460022C5
:10131000284BFFF705FA03D84FF0FF30014607E0EE
:101320000022254B20463146FFF75AF8FFF7E0F937
:10133000102409E0002C0ADB0A220023FEF7E8FF54
:10134000019B30321A55641E50EA0102F2D1641C2E
:10135000019AC4F1110314440F9A012A03D0012207
:1013600008430DD10AE0084304D000204FF0110BD0
:101370000F9080E7A3EB0B056D1E0DE05B4504DDD0
:101380004FF0000205F1010504E003DA4FF000021E
:10139000A5F10105002AECD000980F99C0E90231AF
:1013A000C0E9004586E70000000024400000F03F4F
:1013B000300000000000F0430000E03F2DE9FF4F47
:1013C00095B09B468946064600250FE2252877D131
:1013D00000242746F84A0121059400E0044316F84A
:1013E000013F203B01FA03F01042F7D130782A2860
:1013F00011D06FF02F033078A0F13002092A16D8EF
:10140000059A44F0020402EB820203EB420210440C
:10141000761C0590EFE759F8042B0592002A03DAB1
:10142000504244F40054059044F00204761C307895
:101430002E2816D116F8010F44F004042A280DD0E6
:101440006FF02F023078A0F13003092B09D807EB99
:10145000870302EB4303C718761CF3E759F8047BB4
:10146000761C30786C280FD006DC4C2817D0682802
:101470000DD06A2814D104E0742810D07A280FD136
:101480000DE044F400140AE044F4801401E044F454
:1014900040147278824202D104F58014761C761CC6
:1014A000307866280BD013DC582877D009DC002868
:1014B00075D04528F6D04628F4D047281AD19DE1AA
:1014C00018E0632835D0642879D0652812D195E1D9
:1014D000702873D008DC6728F1D069286FD06E2897
:1014E0000DD06F2806D1B5E073282CD0752875D0A3
:1014F000782874D05A46179990476D1C75E1C4F34B
:101500000250022809D003280DD0D9F80010042871
:101510000DD00D6009F1040967E1D9F80010EA1750
:10152000C1E90052F6E7D9F800100D80F2E70D701E
:10153000F0E719F8041B8DF8001000208DF8010069
:10154000EA46012003E059F804AB4FF0FF30610791
:101550004FF0000102D40DE008F101018846B942C4
:101560000FDA8045F8DB1AF808100029F4D108E0FA
:1015700008F1010188468142FADB1AF808100029B7
:10158000F6D105985B46A0EB080721463846179A26
:1015900000F094FA284400EB080507E04DE029E14B
:1015A0000DE01AF8010B5A4617999047B8F1010857
:1015B000F7D25B4621463846179A13E142E00A22E9
:1015C0000092C4F302524FF0000A022A08D059F8E0
:1015D00004CB032A4FEAEC710AD00DE029E02AE09F
:1015E00009F1070121F00702F2E802C1914609E082
:1015F0000FFA8CFC4FEAEC71042A03D14FFA8CFCF1
:101600004FEAEC71002907DA0A460021DCF1000CF0
:1016100061EB02012D2202E0220504D52B228DF878
:101620000420012203E0E20701D02022F7E79046E0
:1016300059E00A2102E010220DE010214FF0000ACB
:1016400000910BE010224FF0000A44F00404082738
:10165000009203E008224FF0000A0092C4F3025205
:10166000022A05D059F804CB0021032A08D009E04A
:1016700009F1070121F00702F2E802C1914605E0F5
:101680001FFA8CFC042A01D10CF0FF0C4FF000086B
:10169000220728D5702806D0009B83F0100353EA58
:1016A0000A0305D00EE040228DF80420012208E054
:1016B0005CEA010206D030228DF804208DF8050086
:1016C00002229046009B83F0080353EA0A030AD1E2
:1016D0005CEA010201D1620705D530228DF80420B1
:1016E0004FF001087F1E582804D034A003900EA8A4
:1016F00002900DE036A0F9E753466046009AFEF7E7
:1017000007FE84460398825C0298401E0290027095
:101710005CEA0100F0D1029806A9081A00F1200A3B
:10172000600702D524F4803400E00127574502DD2C
:10173000A7EB0A0000E0002000EB0A0100900598EA
:101740004144401A0590E00306D45B462146179AAF
:10175000059800F0B3F90544002706E001A85A46B1
:10176000C05D179990476D1C7F1C4745F6DBE00371
:101770000CD55B462146179A059800F09FF9054461
:1017800004E030205A46179990476D1C0099481E76
:1017900000900029F5DC08E0029802995A4600788A
:1017A000491C0291179990476D1CBAF10001AAF1EA
:1017B000010AF1DC65E10000092801003031323313
:1017C000343536373839616263646566000000007D
:1017D0003031323334353637383941424344454667
:1017E0000000000000F058F90544761C307800280D
:1017F0007FF4ECAD19B02846BDE8F08F620700D445
:10180000062709F1070222F0070CFCE80223E14653
:1018100003F000485FEA080C02D00FF2702C0DE0D4
:101820005FEA045C02D50FF2682C07E05FEAC47C33
:1018300002D00FF2602C01E0AFF2700C4FF0FF38D5
:1018400023F00043CDF850C065280CD006DC4528B5
:1018500009D046281DD047283DD13DE0662818D044
:1018600067287ED138E00021112F01DB112000E034
:10187000781CCDE9000106A90EA8FFF7EDFCDDE913
:101880000F010E9A03910021009207F1010A0491C1
:101890004DE04FF000400097CDE9011006A90EA8D9
:1018A000FFF7DAFCDDE90F0203920E9B119900228B
:1018B000DDF80CA00093049211B9791C00EB010A29
:1018C000B7EB0A0004D4C0F1FF3007F1010A04901D
:1018D000AAEB0700019044E0012F00DA0127002164
:1018E000112F01DD112000E03846CDE9000106A9E5
:1018F0000EA8FFF7B1FCDDE90F010E9A039100215C
:1019000004910092BA4621070CD40399514500DA9C
:101910008A46BAF1010F05DD009AAAF10101515C76
:10192000302908D0B84202DA10F1040F06DA01219A
:10193000CDE9011015E0AAF10101E9E7002805DC75
:10194000049901440491AAEB000102E0411C5145B5
:1019500000DD8A460499401A401C01904FF0004077
:101960000290200704D40198504501DBCDF8048093
:1019700000208DF84F0002980DF14F07B0F1004F95
:1019800025D02B200E9002984FF0020800280CDA88
:10199000404202902D200E9007E00A210298FEF7A7
:1019A000A1FC3031029007F8011DB8F10001A8F147
:1019B0000108F2DC02980028EFD1791E0E98087019
:1019C000307800F0200040F0450007F8020D12A822
:1019D000C01B00F107081498007800B1012000EB4B
:1019E0000A01019801EBE07105984144401A401E3C
:1019F0000590E00306D45B462146179A059800F04F
:101A00005DF805441498007818B15A461799904724
:101A10006D1CE00324D55B462146179A059800F01B
:101A20004DF805441CE00498002807DBDDE90301BC
:101A3000884203DD0098405C179901E01799302037
:101A40005A469047049805F10105401C04900198FE
:101A5000401E019004D12E205A46179990476D1CC4
:101A6000BAF10001AAF1010ADDDC05E017F8010B6B
:101A70005A46179990476D1CB8F10001A8F101086A
:101A8000F4DC5B462146179A0598ABE62D00000072
:101A90002B000000200000002DE9F0410446002545
:101AA0001E461746880404D405E039462020B04776
:101AB0006D1C641EF9D52846BDE8F0812DE9F04182
:101AC000044600251E469046C80301D5302700E095
:101AD0002027880404D505E041463846B0476D1CF0
:101AE000641EF9D52846BDE8F081000070B50446B3
:101AF0000D46E1B20548FFF788FB00BF40210348CF
:101B0000FFF776FB0028F9D0204670BD0044004066
:101B10001CB5284800684FF47A72B0FBF2F1B1F1BD
:101B2000807F00D31DE021F07F40401E4FF0E02277
:101B3000506150170F22002807DA13071D0E1E4BA5
:101B400000F00F04241F1D5503E013071C0E1B4B50
:101B50001C5400BF00204FF0E0229061072010616C
:101B600000BFFEF7A3FEFFF79DF9FFF75DF81FE04A
:101B700013480068FEF7A3FB04460D4611480068B1
:101B8000FEF79DFB064632460B460FA0CDE9004509
:101B9000FFF742FB80211448FEF727FF80F0010485
:101BA000224680211048FEF729FF6420FEF773FECD
:101BB000DEE700003400002018ED00E000E400E063
:101BC000300000202C000020736F20766F6E672F8E
:101BD00070687574203D2025342E33662C25342EF4
:101BE0003366200A00000000000C01400C1C0008B5
:101BF000000000204C00000038120008581C0008AB
:101C00004C0000203C0400004812000800000000C6
:101C100000000000000000000000000000000000C4
:101C200000000000000000000000000000000000B4
:101C300000000000000000000000000000000000A4
:101C400000A24A040000000000000000010203049A
:081C500006070809000000006E
:04000005080000ED02
:00000001FF
