:020000040800F2
:100000001804002001010008650100085D010008D6
:10001000610100084B0100082903000800000000EE
:10002000000000000000000000000000690100085E
:100030004F0100080000000067010008C10200082D
:100040001B0100081B0100081B0100081B01000820
:100050001B0100081B0100081B0100081B01000810
:100060001B0100081B0100081B0100081B01000800
:100070001B0100081B0100081B0100081B010008F0
:100080001B0100081B010008490100081B010008B2
:100090001B0100081B0100081B0100081B010008D0
:1000A0001B0100081B0100081B0100081B010008C0
:1000B0001B0100081B0100081B0100081B010008B0
:1000C0001B0100081B0100081B0100081B010008A0
:1000D0001B0100081B0100081B0100081B01000890
:1000E0005B0100081B0100081B010008DFF80CD0B1
:1000F00000F018F8004800474B03000818040020DF
:100100000648804706480047FEE7FEE7FEE7FEE7B1
:10011000FEE7FEE7FEE7FEE7FEE7FEE7C9020008AE
:10012000ED000008064C074D06E0E06840F00103D2
:1001300094E8070098471034AC42F6D3FFF7DAFF93
:100140005403000874030008704700BFFEE77047BF
:10015000014600BF0029FDD17047704700BFFEE790
:1001600000BFFEE770477047704710B500F002F817
:1001700010BD00000CB500200190009033480068CD
:1001800040F480303149086000BF3048006800F416
:10019000003000900198401C0190009818B9019817
:1001A000B0F5A06FF1D12948006800F4003010B11B
:1001B0000120009001E0002000900098012843D128
:1001C0002348006840F01000214908600846006894
:1001D00020F0030008600846006840F00200086054
:1001E0001A4840681949486008464068486008460F
:1001F000406840F4806048600846406820F47C1005
:1002000048600846406840F4E810486008460068C6
:1002100040F08070086000BF0C48006800F000707B
:100220000028F9D00948406820F0030007494860D9
:100230000846406840F00200486000BF034840683C
:1002400000F00C000828F9D10CBD0000001002409D
:100250000020024030B5174800684FF47A72B0FBB6
:10026000F2F1B1F1807F01D301201DE021F07F4048
:10027000401E4FF0E022506150170F22002807DA8D
:1002800013071D0E0C4B00F00F04241F1D5503E037
:1002900013071C0E094B1C5400BF00204FF0E02236
:1002A000906107201061002018B14FF4FA70FFF739
:1002B0004FFF30BD0000002018ED00E000E400E03A
:1002C00008B1411E88B2704710B51348006840F06D
:1002D00001001149086008464068104908400E496D
:1002E0004860084600680E4908400B490860084607
:1002F000006820F4802008600846406820F4FE0072
:1003000048604FF41F008860FFF72FFF4FF0006038
:100310000449086010BD0000001002400000FFF812
:10032000FFFFF6FE08ED00E000BFFEE702E008C8B0
:10033000121F08C1002AFAD170477047002001E05F
:1003400001C1121F002AFBD17047FFF783FF00BFD6
:10035000FEE7000074030008000000201400000005
:100360002C03000888030008140000200404000087
:100370003C03000800A24A04000000000000000046
:0803800001020304060708094D
:04000005080000ED02
:00000001FF
