:020000040800F2
:10000000480400200101000855050008EB04000821
:10001000EF040008A30200087111000800000000AE
:100020000000000000000000000000002D07000894
:10003000A70200080000000079060008190800085F
:100040001B0100081B0100081B0100081B01000820
:100050001B0100081B0100081B0100081B01000810
:100060001B0100081B0100081B0100081B01000800
:100070001B0100081B0100081B0100081B010008F0
:100080001B0100081B010008A10200081B01000859
:100090001B0100081B0100081B0100081B010008D0
:1000A0001B0100081B0100081B0100081B010008C0
:1000B0001B010008BD0A0008110B00081B01000805
:1000C0001B0100081B0100081B0100081B010008A0
:1000D0001B0100081B0100081B0100081B01000890
:1000E0001B0100081B0100081B010008DFF80CD0F1
:1000F00000F0C4F800480047B5110008480400208B
:100100000648804706480047FEE7FEE7FEE7FEE7B1
:10011000FEE7FEE7FEE7FEE7FEE7FEE71D08000854
:10012000ED000008F0B480EA0102D40F4200B2EB07
:10013000410F02D20246084611464A0042D0C30D82
:10014000DDB2C1F3C752AD1A202D35DAC1F3160165
:1001500041F4000204B15242C5F1200602FA06F150
:100160002A411044B3EBD05F23D0C4B1012DA0EBE2
:10017000C35009DCF0BC4FF0004202EAC352DBB2CC
:1001800000F5000000F04CB8400000F1807000EB7A
:10019000C350A0F1807040EAD170490009E04908DD
:1001A00041EAC071A0EBC35000F50000400800EB2D
:1001B000C350F0BC00F02BB86142012202EB4101B8
:1001C000001BF6E7F0BC704781F00041AAE780F021
:1001D0000040A7E7C10F80EAE0700844CA079623F1
:1001E000002100F01DB820F00040C10DC0F3160042
:1001F00040F400007F2901DA00207047962903DCD3
:10020000C1F19601C840704796398840704700296F
:10021000A8BF7047401C490008BF20F0010070478C
:1002200010B4B0FA80FC00FA0CF050EA010404BFEC
:1002300010BC704749B1CCF1200421FA04F411FA42
:100240000CF118BF012121430843A3EB0C01CB1D86
:100250004FEA00614FEA102042BF002010BC7047F7
:1002600000EBC35010440029A4BF10BC7047401CD1
:10027000490008BF20F0010010BC7047064C074D34
:1002800006E0E06840F0010394E807009847103466
:10029000AC42F6D3FFF72EFFE01100080012000871
:1002A000704700BFFEE7704710B5154800F0BCFC72
:1002B0000121042000F0E2F9002012494880C880A2
:1002C0006320888041F61F400880002008720C4897
:1002D00000F0C4FE01210A4800F08AFC0021084811
:1002E00000F08DFE01221146054800F025FE012197
:1002F000034800F089FC0121014800F088FC10BD92
:10030000000800402400002010B50121022000F068
:10031000B5F900201949C88048804FF6FF708880E1
:100320000120088000200872154800F097FE042084
:10033000144908800020C880022048800F200881CE
:10034000012088800E4800F0A1FD02231A460121F9
:100350000B4800F05DFD0021094800F050FE01212E
:10036000074800F054FC0121054800F04DFC012233
:100370001146034800F0E0FD10BD000024000020FD
:10038000000400403E00002010B50121042000F0D0
:1003900095F9C020044908804820C870032088705F
:1003A000024800F005F810BD0400002000080140DC
:1003B0002DE9F041024600250026002000230024FC
:1003C000002791F803C00CF00F0591F803C00CF062
:1003D000100CBCF1000F03D091F802C04CEA0505E7
:1003E00091F800C0BCF1000F31D0146800202BE060
:1003F0004FF0010C0CFA00F3B1F800C00CEA030650
:100400009E4220D183004FF00F0C0CFA03F7BC433F
:1004100005FA03FC4CEA040491F803C0BCF1280F70
:1004200006D14FF0010C0CFA00FCC2F814C00AE02F
:1004300091F803C0BCF1480F05D14FF0010C0CFA44
:1004400000FCC2F810C0401C0828D1D31460B1F8D9
:1004500000C0BCF1FF0F34DD546800202EE000F135
:10046000080C4FF0010808FA0CF3B1F800C00CEAD0
:1004700003069E4221D183004FF00F0C0CFA03F7C4
:10048000BC4305FA03FC4CEA040491F803C0BCF138
:10049000280F05D100F1080C08FA0CF8C2F81480F6
:1004A00091F803C0BCF1480F07D100F1080C4FF0E0
:1004B000010808FA0CF8C2F81080401C0828CED3B6
:1004C0005460BDE8F0810246002093680B400BB1F8
:1004D000012000E0002070474161704701617047D2
:1004E0000AB1016100E04161704700BFFEE700BF53
:1004F000FEE770B5044604EB840040004FF4A071A1
:1005000090FBF1F085B2284600F0F8F870BD0000CD
:1005100010B50121042000F0D1F803200B49088018
:100520001020C870032088700948FFF741FF01219F
:10053000042000F0C3F80420044908801820C87083
:10054000032088700248FFF733FF10BD040000202D
:10055000000801407047000010B54FF4A06000F0A3
:1005600053F81D200B490870012048700020887046
:100570000120C870084600F00FF81E2005490870D9
:100580000020487088700120C870084600F004F808
:1005900010BD00000000002070B5002100230F22D4
:1005A000C47804B3154C246804F4E064C4F5E06432
:1005B000210AC1F10403CA40447804FA03F18478A3
:1005C0001440214309010E4C0678A155047804F02B
:1005D0001F050124AC4005786D11AD0005F1E02543
:1005E000C5F8004109E0047804F01F050124AC407F
:1005F000044D0678761145F8264070BD0CED00E0FC
:1006000000E400E080E100E002490143024A116099
:10061000704700000000FA050CED00E010B504463C
:100620000121084600F02AF841F61F4010490880D1
:10063000092088800020C88048804FF0804000F06A
:100640000DFD60200B490880012048800020488172
:10065000601EC8804FF0804000F078FC0821C8067A
:1006600000F0C4FC0121880700F0D1FA10BD0000A1
:10067000240000202E0000207047000029B1064A07
:10068000D2690243044BDA6104E0034AD26982432F
:10069000014BDA61704700000010024029B1064AA0
:1006A00012690243044B1A6104E0034A126982434F
:1006B000014B1A61704700000010024029B1064A40
:1006C00092690243044B9A6104E0034A92698243AF
:1006D000014B9A61704700000010024029B1064AA0
:1006E000D2680243044BDA6004E0034AD2688243D2
:1006F000014BDA60704700000010024010B504465C
:1007000004210948FFF7EAFE01210748FFF7E4FE4C
:1007100002210548FFF7E0FE2046FFF77FFF4FF478
:10072000FA6000F036FD10BD00080140704710B5BA
:1007300000F002F810BD00000CB500200190009000
:100740003348006840F480303149086000BF3048C9
:10075000006800F4003000900198401C019000985F
:1007600018B90198B0F5A06FF1D12948006800F4DC
:10077000003010B10120009001E0002000900098AE
:10078000012843D12348006840F010002149086047
:100790000846006820F0030008600846006840F042
:1007A000020008601A4840681949486008464068D5
:1007B00048600846406840F48060486008464068E9
:1007C00020F47C1048600846406840F4E810486017
:1007D0000846006840F08070086000BF0C48006860
:1007E00000F000700028F9D00948406820F00300AC
:1007F000074948600846406840F00200486000BF72
:100800000348406800F00C000828F9D10CBD000036
:1008100000100240002002407047000010B513484D
:10082000006840F00100114908600846406810491E
:1008300008400E494860084600680E4908400B49C8
:1008400008600846006820F4802008600846406878
:1008500020F4FE0048604FF41F008860FFF767FF38
:100860004FF000600449086010BD00000010024015
:100870000000FFF8FFFFF6FE08ED00E0F0B50C46C3
:10088000154600220021068C4FF6FE773E40068476
:10089000028B018C4FF60C7632407E1C06EA031662
:1008A0002E433243104EB0420ED0104EB0420BD009
:1008B000B0F1804F08D00E4EB04205D00D4EB04280
:1008C00002D00D4EB04206D14FF6FD76314044F0D5
:1008D0000106314305E04FF6F576314044F001065C
:1008E000314302830184F0BD002C014000340140FB
:1008F0000004004000080040000C0040F0B50C4629
:100900001546002200210026078C4FF6EF7C07EAEF
:100910000C070784028B018C4FF6FF7707EA041659
:1009200040F6FF473A404FF6FF7707EA03373A436E
:100930004FF6FF7707EA05273A43114FB8420ED02A
:10094000104FB8420BD0B0F1804F08D00E4FB842D4
:1009500005D00E4FB84202D00D4FB84206D14FF627
:10096000DF77394046F01007394305E04FF65F77EF
:10097000394044F01007394302830184F0BD000080
:10098000002C0140003401400004004000080040F9
:10099000000C0040F0B50C46154600220021002650
:1009A000078C4FF6FF6C07EA0C070784828B018CDB
:1009B0004FF6FF7707EA04264FF60C773A404FF6DA
:1009C000FF7707EA03172F433A43114FB8420ED07F
:1009D000104FB8420BD0B0F1804F08D00E4FB84244
:1009E00005D00E4FB84202D00D4FB84206D14FF697
:1009F000FF57394046F48077394305E04FF2FF57FF
:100A0000394044F48077394382830184F0BD00008B
:100A1000002C014000340140000400400008004068
:100A2000000C0040F0B50C461546002200210026BF
:100A3000078C4EF6FF7C07EA0C070784828B018C3B
:100A40004FF6FF7707EA043640F6FF473A404FF685
:100A5000FF7707EA05273A434FF6FF7707EA0337A0
:100A60003A43114FB8420ED0104FB8420BD0B0F1FC
:100A7000804F08D00E4FB84205D00E4FB84202D07A
:100A80000D4FB84206D14DF6FF77394046F48057F6
:100A9000394305E047F6FF57394044F4805739435E
:100AA00082830184F0BD0000002C0140003401402D
:100AB0000004004000080040000C004010B5012177
:100AC000104800F0C9F901281BD101210D4800F0A0
:100AD0009BF80C48243000880B49088008460088A1
:100AE0004FF6FF71884204D108480088401E07492C
:100AF00008800548008820B904480088401C034944
:100B0000088010BD000400401E00002020000020CE
:100B100070B501212E4800F0A8F9002857D0012116
:100B20002B4800F071F84FF400512A48FFF7CBFC36
:100B300080F0010422464FF400512648FFF7D0FC14
:100B4000254800F086F9254909884FF4803202FBD8
:100B50000100234908800846008822490988884204
:100B60000CDD1F4909881F4A1288881AFFF732FBDB
:100B70000446FFF738FB1C49088019E01848008834
:100B800018490988884210DA15490988154A1288D7
:100B9000881AFFF71FFB05460021FFF718FB0446E4
:100BA000FFF721FB1049088002E000200E49088071
:100BB0000D48008841F2707148434FF4BB7190FBBF
:100BC000F1F00A490880064800880649088070BD8F
:100BD00000080040001001400004004020000020F8
:100BE0001400002016000020180000201A00002029
:100BF00021B1028842F08002028004E002884FF6B0
:100C00007F731A4002807047CA430282704721B145
:100C1000028842F00102028004E002884FF6FE736F
:100C20001A4002807047000010B5044668488442AC
:100C300008D10121C014FFF751FD0021E014FFF796
:100C40004DFDC4E0B4F1804F08D101210846FFF703
:100C500025FD00210120FFF721FDB8E05D48844219
:100C600008D101210220FFF719FD00210220FFF722
:100C700015FDACE05848844208D101210420FFF75B
:100C80000DFD00210420FFF709FDA0E05348844238
:100C900008D101210820FFF701FD00210820FFF7FE
:100CA000FDFC94E04E48844208D101211020FFF75A
:100CB000F5FC00211020FFF7F1FC88E04948844250
:100CC00008D101212020FFF7E9FC00212020FFF7B7
:100CD000E5FC7CE04448844208D101214014FFF740
:100CE000FDFC00216014FFF7F9FC70E03F488442EE
:100CF00009D10121C804FFF7F1FC00214FF40020C5
:100D0000FFF7ECFC63E03A48844209D10121080571
:100D1000FFF7E4FC00214FF48010FFF7DFFC56E002
:100D20003448844209D101214805FFF7D7FC00214E
:100D30004FF40010FFF7D2FC49E02F48844208D15D
:100D400001214020FFF7AAFC00214020FFF7A6FC6C
:100D50003DE02A48844208D101218020FFF79EFC13
:100D600000218020FFF79AFC31E02548844208D119
:100D700001218015FFF792FC0021A015FFF78EFCE2
:100D800025E02048844209D101210804FFF7A6FC90
:100D900000214FF48030FFF7A1FC18E01A4884428C
:100DA00009D101214804FFF799FC00214FF40030DC
:100DB000FFF794FC0BE01548844208D10121880418
:100DC000FFF78CFC00214FF48020FFF787FC10BD5B
:100DD000002C01400004004000080040000C0040CE
:100DE000001000400014004000340140004C01405D
:100DF000005001400054014000180040001C004019
:100E000000200040004001400044014000480140F3
:100E1000F0B50C4615461E4600210022002301892C
:100E2000028B038C4FF6F877394021434FF6FC478D
:100E30003A4040F201173A434FF6DD773B404FF618
:100E4000FF7707EA06172F433B43018102830384A0
:100E5000F0BD0146888C704702460020138A0B4083
:100E60000BB1012000E00020704730B502460020A1
:100E700000230024158A05EA0103958905EA010487
:100E800013B10CB1012000E0002030BD70B5054663
:100E90000C46244885420ED0234885420BD0B5F13C
:100EA000804F08D02148854205D02148854202D094
:100EB0002048854200D100E000BF208850B9238936
:100EC000A28861882846FFF7D9FCE188284600F00F
:100ED00098F825E0208804280AD12389A28861880F
:100EE0002846FFF70BFDE188284600F093F817E04D
:100EF000208808280AD12389A28861882846FFF71C
:100F000049FDE188284600F092F809E02389A2888B
:100F100061882846FFF786FDE188284600F090F8B2
:100F200070BD0000002C014000340140000400406E
:100F300000080040000C00401AB183890B438381F4
:100F400002E083898B4383817047000070B50024E1
:100F500000220023058C4FF6FF6635400584028C85
:100F60008388848B4FF68F752C404FF6FC752C4090
:100F70000D882C434FF6FF552A400D894FF6FF761A
:100F800006EA05252A434D8806EA05252A43154D1C
:100F9000A84202D0144DA8421DD14FF2FF752A403D
:100FA0004D894FF6FF7606EA05252A434FF6FF35B1
:100FB0002A408D8806EA05252A434EF6FF752B4008
:100FC0004DF6FF752B408D8906EA05152B43CD891B
:100FD00006EA05152B4383808483CD8885870284A8
:100FE00070BD0000002C0140003401400A46002181
:100FF000818B4FF6F77319401143818370478184C9
:101000007047028B4FF6F3731A400283028B0A4338
:1010100002837047028B4FF2FF331A400283028B28
:101020004FF6FF7303EA01231A4302837047828B52
:101030004FF6F3731A408283828B0A438283704790
:10104000828B4FF2FF331A408283828B4FF6FF73FD
:1010500003EA01231A4382837047000000220288BA
:101060001D4B98420ED01D4B98420BD0B0F1804FD3
:1010700008D01B4B984205D01A4B984202D01A4B0D
:10108000984204D14FF68F731A404B881A43174B7E
:10109000984207D0164B984204D04FF6FF431A40AF
:1010A000CB881A4302808B8883850B8803850A4B83
:1010B00098420BD0094B984208D00E4B984205D06D
:1010C0000D4B984202D00D4B984201D10B7A03860A
:1010D0000123838270470000002C0140003401404E
:1010E0000004004000080040000C004000100040D8
:1010F000001400400040014000440140004801400D
:1011000070B504460D4601210820FFF7D7FA80206C
:10111000144908801020C870032088701248FFF717
:1011200047F901211020FFF7C9FA4FF400500D498B
:101130000880032088701020C8700C48FFF738F929
:10114000322000F026F829462046FFF7BCF980F04F
:101150000106324629462046FFF7C2F9322000F048
:1011600018F870BD04000020000C01400010014080
:1011700000BFFEE702E008C8121F08C1002AFAD12A
:1011800070477047002001E001C1121F002AFBD107
:10119000704701B581B00020009042F63C010198F3
:1011A0004843009002E00098401E009000980028FC
:1011B000F9D10CBDFFF7ACF9FFF7E6F8FFF7A4F89B
:1011C000FFF772F8FFF7C8F96420FFF792F904E01F
:1011D0004FF400510148FFF793FFF9E70010014079
:1011E0000012000800000020240000007411000814
:1011F00024120008240000202404000084110008A8
:1012000000000000000000000000000000000000DE
:1012100000000000000000000000000000000000CE
:0412200000000000CA
:04000005080000ED02
:00000001FF
