:020000040800F2
:100000001004002001010008EF030008E7030008C6
:10001000EB0300084B010008D505000800000000B4
:10002000000000000000000000000000850400083F
:100030004F0100080000000061040008710500087D
:100040001B0100081B0100081B0100081B01000820
:100050001B0100081B0100081B0100081B01000810
:100060001B0100081B0100081B0100081B01000800
:100070001B0100081B0100081B0100081B010008F0
:100080001B0100081B010008490100081B010008B2
:100090001B0100081B0100081B010008F5010008F6
:1000A0001B0100081B0100081B0100081B010008C0
:1000B0001B0100081B0100081B0100081B010008B0
:1000C0001B0100081B0100081B0100081B010008A0
:1000D0001B0100081B0100081B0100081B01000890
:1000E000C50100081B0100081B010008DFF80CD047
:1000F00000F018F800480047F70500081004002039
:100100000648804706480047FEE7FEE7FEE7FEE7B1
:10011000FEE7FEE7FEE7FEE7FEE7FEE775050008FF
:10012000ED000008064C074D06E0E06840F00103D2
:1001300094E8070098471034AC42F6D3FFF7DAFF93
:100140000406000824060008704700BFFEE7704759
:1001500010B50121052000F085F94FF40040154944
:100160000880032088704820C870134800F0A2F867
:100170000F21002000F07EF84FF4004000F04CF812
:100180000121084600F06EF94FF400400B49086069
:100190000020087101208871082048712820084932
:1001A00008700020487088700120C870084600F070
:1001B0001FF910BD000000200008014004000020CD
:1001C0000C00002010B54FF4004000F02BF870B187
:1001D0004FF4004000F020F84021054800F0F5F809
:1001E00080F0010422464021014800F0F7F810BDDC
:1001F000000C014010B54FF4807000F013F840B1CE
:100200004FF4807000F008F800224021014800F00F
:10021000E5F810BD000C014001490860704700007E
:1002200014040140014600200022074B1B6803EA2A
:100230000102054B14331B680B4013B10AB10120B6
:1002400000E00020704700000004014010B50121CB
:10025000082000F007F9FF20044908800320887077
:100260001020C870024800F025F810BD00000020E2
:10027000000C014030B500228B071C0F0F2303FA3E
:1002800004F20B4B8C1053F824309343084C8D1020
:1002900044F8253023468C1053F824308C07240F63
:1002A00000FA04F42343024C8D1044F8253030BD8D
:1002B000080001402DE9F0410246002500260020FB
:1002C00000230024002791F803C00CF00F0591F8DB
:1002D00003C00CF0100CBCF1000F03D091F802C069
:1002E0004CEA050591F800C0BCF1000F31D014684C
:1002F00000202BE04FF0010C0CFA00F3B1F800C025
:100300000CEA03069E4220D183004FF00F0C0CFA3A
:1003100003F7BC4305FA03FC4CEA040491F803C05C
:10032000BCF1280F06D14FF0010C0CFA00FCC2F80A
:1003300014C00AE091F803C0BCF1480F05D14FF09A
:10034000010C0CFA00FCC2F810C0401C0828D1D3E4
:100350001460B1F800C0BCF1FF0F34DD5468002018
:100360002EE000F1080C4FF0010808FA0CF3B1F888
:1003700000C00CEA03069E4221D183004FF00F0C0F
:100380000CFA03F7BC4305FA03FC4CEA040491F8A9
:1003900003C0BCF1280F05D100F1080C08FA0CF8D5
:1003A000C2F8148091F803C0BCF1480F07D100F1E6
:1003B000080C4FF0010808FA0CF8C2F81080401C35
:1003C0000828CED35460BDE8F0810246002093682F
:1003D0000B400BB1012000E0002070470AB1016121
:1003E00000E04161704700BFFEE700BFFEE77047D5
:1003F00070B5002100230F22C47804B3154C246883
:1004000004F4E064C4F5E064210AC1F10403CA40C5
:10041000447804FA03F184781440214309010E4C16
:100420000678A155047804F01F050124AC40057836
:100430006D11AD0005F1E025C5F8004109E0047833
:1004400004F01F050124AC40044D0678761145F8F0
:10045000264070BD0CED00E000E400E080E100E02B
:100460007047000029B1064A92690243044B9A6121
:1004700004E0034A92698243014B9A61704700008D
:1004800000100240704710B500F002F810BD0000E7
:100490000CB50020019000903348006840F4803093
:1004A0003149086000BF3048006800F40030009017
:1004B0000198401C0190009818B90198B0F5A06F00
:1004C000F1D12948006800F4003010B101200090FB
:1004D00001E0002000900098012843D123480068E3
:1004E00040F01000214908600846006820F0030031
:1004F00008600846006840F0020008601A4840683A
:10050000194948600846406848600846406840F419
:10051000806048600846406820F47C1048600846C7
:10052000406840F4A81048600846006840F08070B9
:10053000086000BF0C48006800F000700028F9D087
:100540000948406820F003000749486008464068B1
:1005500040F00200486000BF0348406800F00C0013
:100560000828F9D10CBD0000001002400020024014
:100570007047000010B51348006840F001001149B1
:10058000086008464068104908400E49486008461F
:1005900000680E4908400B4908600846006820F4CE
:1005A000802008600846406820F4FE0048604FF450
:1005B0001F008860FFF767FF4FF000600449086084
:1005C00010BD0000001002400000FFF8FFFFF6FE23
:1005D00008ED00E000BFFEE702E008C8121F08C1F6
:1005E000002AFAD170477047002001E001C1121FB4
:1005F000002AFBD17047FFF729FEFFF7A9FD00BFD6
:10060000FEE70000240600080000002010000000A3
:10061000D80500083406000810000020000400007F
:10062000E8050008000000000000000000000000D5
:0406300000000000C6
:04000005080000ED02
:00000001FF
