:020000040800F2
:10000000680400200101000899050008090500089E
:100010000D050008A3020008F91000080000000008
:100020000000000000000000000000000D070008B4
:10003000A70200080000000089060008F907000870
:100040001B0100081B0100081B0100081B01000820
:100050001B0100081B0100081B0100081B01000810
:100060001B0100081B0100081B0100081B01000800
:100070001B0100081B0100081B0100081B010008F0
:100080001B0100081B010008A10200081B01000859
:100090001B0100081B0100081B0100081B010008D0
:1000A0001B0100081B0100081B0100081B010008C0
:1000B0001B0100089D0A0008F10A00081B01000846
:1000C0001B0100081B0100081B0100081B010008A0
:1000D0001B0100081B0100081B0100081B01000890
:1000E0001B0100081B0100081B010008DFF80CD0F1
:1000F00000F0C4F8004800473D11000868040020E3
:100100000648804706480047FEE7FEE7FEE7FEE7B1
:10011000FEE7FEE7FEE7FEE7FEE7FEE7FD07000875
:10012000ED000008F0B480EA0102D40F4200B2EB07
:10013000410F02D20246084611464A0042D0C30D82
:10014000DDB2C1F3C752AD1A202D35DAC1F3160165
:1001500041F4000204B15242C5F1200602FA06F150
:100160002A411044B3EBD05F23D0C4B1012DA0EBE2
:10017000C35009DCF0BC4FF0004202EAC352DBB2CC
:1001800000F5000000F04CB8400000F1807000EB7A
:10019000C350A0F1807040EAD170490009E04908DD
:1001A00041EAC071A0EBC35000F50000400800EB2D
:1001B000C350F0BC00F02BB86142012202EB4101B8
:1001C000001BF6E7F0BC704781F00041AAE780F021
:1001D0000040A7E7C10F80EAE0700844CA079623F1
:1001E000002100F01DB820F00040C10DC0F3160042
:1001F00040F400007F2901DA00207047962903DCD3
:10020000C1F19601C840704796398840704700296F
:10021000A8BF7047401C490008BF20F0010070478C
:1002200010B4B0FA80FC00FA0CF050EA010404BFEC
:1002300010BC704749B1CCF1200421FA04F411FA42
:100240000CF118BF012121430843A3EB0C01CB1D86
:100250004FEA00614FEA102042BF002010BC7047F7
:1002600000EBC35010440029A4BF10BC7047401CD1
:10027000490008BF20F0010010BC7047064C074D34
:1002800006E0E06840F0010394E807009847103466
:10029000AC42F6D3FFF72EFF581100087811000882
:1002A000704700BFFEE7704710B5154800F0B8FC76
:1002B0000121042000F0EAF9002012494880C8809A
:1002C0006320888041F61F400880002008720C4897
:1002D00000F0C0FE01210A4800F086FC0021084819
:1002E00000F089FE01221146054800F021FE01219F
:1002F000034800F085FC0121014800F084FC10BD9A
:10030000000800404400002010B50121022000F048
:10031000BDF900201649C88048804FF6FF708880DC
:100320000120088000200872124800F093FE04208B
:10033000114908800020C880022048800F200881D1
:10034000012088800B4800F09DFD02231A46012100
:10035000084800F059FD0021064800F04CFE01213C
:10036000044800F050FC0121024800F049FC10BD97
:1003700044000020000400405E00002010B5012170
:10038000042000F0A3F9C020044908804820C87068
:1003900003208870024800F005F810BD040000201A
:1003A000000801402DE9F04102460025002600200A
:1003B00000230024002791F803C00CF00F0591F8EA
:1003C00003C00CF0100CBCF1000F03D091F802C078
:1003D0004CEA050591F800C0BCF1000F31D014685B
:1003E00000202BE04FF0010C0CFA00F3B1F800C034
:1003F0000CEA03069E4220D183004FF00F0C0CFA4A
:1004000003F7BC4305FA03FC4CEA040491F803C06B
:10041000BCF1280F06D14FF0010C0CFA00FCC2F819
:1004200014C00AE091F803C0BCF1480F05D14FF0A9
:10043000010C0CFA00FCC2F810C0401C0828D1D3F3
:100440001460B1F800C0BCF1FF0F34DD5468002027
:100450002EE000F1080C4FF0010808FA0CF3B1F897
:1004600000C00CEA03069E4221D183004FF00F0C1E
:100470000CFA03F7BC4305FA03FC4CEA040491F8B8
:1004800003C0BCF1280F05D100F1080C08FA0CF8E4
:10049000C2F8148091F803C0BCF1480F07D100F1F5
:1004A000080C4FF0010808FA0CF8C2F81080401C44
:1004B0000828CED35460BDE8F0810246002093683E
:1004C0000B400BB1012000E00020704741617047F4
:1004D000016170470AB1016100E0416170470000AD
:1004E00010B502210748FFF7F3FF01210548FFF788
:1004F000EDFF052000F09AF84FF4FA6000F00DFED1
:1005000010BD00000008014000BFFEE700BFFEE78D
:1005100010B50121042000F0D9F803201A49088001
:100520001020C870032088701848FFF73BFF012196
:10053000042000F0CBF80420134908801820C8706C
:10054000032088701148FFF72DFF0121082000F0DB
:10055000BDF880200C4908801020C87003208870E6
:100560000B48FFF71FFF0121102000F0AFF84FF4F8
:10057000005005490880032088701020C870054885
:10058000FFF710FF10BD000004000020000801402C
:10059000000C0140001001407047000010B51E2003
:1005A000054908700020487088700120C87008460E
:1005B00000F004F810BD00000000002070B500211C
:1005C00000230F22C47804B3154C246804F4E064BB
:1005D000C4F5E064210AC1F10403CA40447804FA76
:1005E00003F184781440214309010E4C0678A1558B
:1005F000047804F01F050124AC4005786D11AD00AE
:1006000005F1E025C5F8004109E0047804F01F0574
:100610000124AC40044D0678761145F8264070BDA3
:100620000CED00E000E400E080E100E010B50446DD
:100630000121084600F02AF841F61F4010490880C1
:10064000092088800020C88048804FF0804000F05A
:1006500001FD60200B49088001204880002048816E
:10066000601EC8804FF0804000F06CFC0821C80676
:1006700000F0B8FC0121880700F0C5FA10BD0000A9
:10068000440000204E0000207047000029B1064AB7
:10069000D2690243044BDA6104E0034AD26982431F
:1006A000014BDA61704700000010024029B1064A90
:1006B00012690243044B1A6104E0034A126982433F
:1006C000014B1A61704700000010024029B1064A30
:1006D00092690243044B9A6104E0034A926982439F
:1006E000014B9A61704700000010024029B1064A90
:1006F000D2680243044BDA6004E0034AD2688243C2
:10070000014BDA607047000000100240704710B5DE
:1007100000F002F810BD00000CB500200190009020
:100720003348006840F480303149086000BF3048E9
:10073000006800F4003000900198401C019000987F
:1007400018B90198B0F5A06FF1D12948006800F4FC
:10075000003010B10120009001E0002000900098CE
:10076000012843D12348006840F010002149086067
:100770000846006820F0030008600846006840F062
:10078000020008601A4840681949486008464068F5
:1007900048600846406840F4806048600846406809
:1007A00020F47C1048600846406840F4E810486037
:1007B0000846006840F08070086000BF0C48006880
:1007C00000F000700028F9D00948406820F00300CC
:1007D000074948600846406840F00200486000BF92
:1007E0000348406800F00C000828F9D10CBD000057
:1007F00000100240002002407047000010B513486E
:10080000006840F00100114908600846406810493E
:1008100008400E494860084600680E4908400B49E8
:1008200008600846006820F4802008600846406898
:1008300020F4FE0048604FF41F008860FFF767FF58
:100840004FF000600449086010BD00000010024035
:100850000000FFF8FFFFF6FE08ED00E0F0B50C46E3
:10086000154600220021068C4FF6FE773E40068496
:10087000028B018C4FF60C7632407E1C06EA031682
:100880002E433243104EB0420ED0104EB0420BD029
:10089000B0F1804F08D00E4EB04205D00D4EB042A0
:1008A00002D00D4EB04206D14FF6FD76314044F0F5
:1008B0000106314305E04FF6F576314044F001067C
:1008C000314302830184F0BD002C0140003401401B
:1008D0000004004000080040000C0040F0B50C4649
:1008E0001546002200210026078C4FF6EF7C07EA10
:1008F0000C070784028B018C4FF6FF7707EA04167A
:1009000040F6FF473A404FF6FF7707EA03373A438E
:100910004FF6FF7707EA05273A43114FB8420ED04A
:10092000104FB8420BD0B0F1804F08D00E4FB842F4
:1009300005D00E4FB84202D00D4FB84206D14FF647
:10094000DF77394046F01007394305E04FF65F770F
:10095000394044F01007394302830184F0BD0000A0
:10096000002C014000340140000400400008004019
:10097000000C0040F0B50C46154600220021002670
:10098000078C4FF6FF6C07EA0C070784828B018CFB
:100990004FF6FF7707EA04264FF60C773A404FF6FA
:1009A000FF7707EA03172F433A43114FB8420ED09F
:1009B000104FB8420BD0B0F1804F08D00E4FB84264
:1009C00005D00E4FB84202D00D4FB84206D14FF6B7
:1009D000FF57394046F48077394305E04FF2FF571F
:1009E000394044F48077394382830184F0BD0000AC
:1009F000002C014000340140000400400008004089
:100A0000000C0040F0B50C461546002200210026DF
:100A1000078C4EF6FF7C07EA0C070784828B018C5B
:100A20004FF6FF7707EA043640F6FF473A404FF6A5
:100A3000FF7707EA05273A434FF6FF7707EA0337C0
:100A40003A43114FB8420ED0104FB8420BD0B0F11C
:100A5000804F08D00E4FB84205D00E4FB84202D09A
:100A60000D4FB84206D14DF6FF77394046F4805716
:100A7000394305E047F6FF57394044F4805739437E
:100A800082830184F0BD0000002C0140003401404D
:100A90000004004000080040000C004010B5012197
:100AA000104800F0D5F901281BD101210D4800F0B4
:100AB000A7F80C48243000880B49088008460088B5
:100AC0004FF6FF71884204D108480088401E07494C
:100AD00008800548008820B904480088401C034964
:100AE000088010BD000400402A0000202C000020D7
:100AF00070B50121324800F0B4F900285ED0012120
:100B00002F4800F07DF84FF400512E48FFF7D5FC38
:100B100080F0010422464FF400512A48FFF7DAFC26
:100B2000294800F092F9294909884FF4803202FBE4
:100B3000010027490880084600882649098888421C
:100B40000CDD23490988234A1288881AFFF742FBE3
:100B50000446FFF748FB2049088019E01C4800883C
:100B60001C490988884210DA19490988194A1288EB
:100B7000881AFFF72FFB05460021FFF728FB0446E4
:100B8000FFF731FB1449088002E000201249088079
:100B90001148008841F2707148434FF4BB7190FBDB
:100BA000F1F00E4908800C4800880D4991FBF0F0E7
:100BB0000C490860064800880649088070BD00009E
:100BC0000008004000100140000400402C000020FC
:100BD0002000002022000020240000202600002009
:100BE00000A24A044000002021B1028842F08002A5
:100BF000028004E002884FF67F731A40028070473B
:100C0000CA430282704721B1028842F00102028089
:100C100004E002884FF6FE731A400280704700001D
:100C200010B504466848844208D10121C014FFF77A
:100C30005DFD0021E014FFF759FDC4E0B4F1804FE1
:100C400008D101210846FFF731FD00210120FFF7FF
:100C50002DFDB8E05D48844208D101210220FFF754
:100C600025FD00210220FFF721FDACE05848844219
:100C700008D101210420FFF719FD00210420FFF70E
:100C800015FDA0E05348844208D101210820FFF758
:100C90000DFD00210820FFF709FD94E04E48844235
:100CA00008D101211020FFF701FD00211020FFF7DE
:100CB000FDFC88E04948844208D101212020FFF74B
:100CC000F5FC00212020FFF7F1FC7CE04448844241
:100CD00008D101214014FFF709FD00216014FFF73E
:100CE00005FD70E03F48844209D10121C804FFF7A7
:100CF000FDFC00214FF40020FFF7F8FC63E03A48C8
:100D0000844209D101210805FFF7F0FC00214FF4CE
:100D10008010FFF7EBFC56E03448844209D10121F2
:100D20004805FFF7E3FC00214FF40010FFF7DEFC5D
:100D300049E02F48844208D101214020FFF7B6FC4A
:100D400000214020FFF7B2FC3DE02A48844208D150
:100D500001218020FFF7AAFC00218020FFF7A6FCDC
:100D600031E02548844208D101218015FFF79EFC1F
:100D70000021A015FFF79AFC25E02048844209D104
:100D800001210804FFF7B2FC00214FF48030FFF787
:100D9000ADFC18E01A48844209D101214804FFF74C
:100DA000A5FC00214FF40030FFF7A0FC0BE0154834
:100DB000844208D101218804FFF798FC00214FF4F8
:100DC0008020FFF793FC10BD002C01400004004080
:100DD00000080040000C00400010004000140040DB
:100DE00000340140004C01400050014000540140DB
:100DF00000180040001C004000200040004001405E
:100E00000044014000480140F0B50C4615461E461E
:100E10000021002200230189028B038C4FF6F87712
:100E2000394021434FF6FC473A4040F201173A431C
:100E30004FF6DD773B404FF6FF7707EA06172F4363
:100E40003B43018102830384F0BD0146888C7047D7
:100E500002460020138A0B400BB1012000E0002065
:100E6000704730B50246002000230024158A05EAA9
:100E70000103958905EA010413B10CB1012000E0DA
:100E8000002030BD70B505460C46244885420ED082
:100E9000234885420BD0B5F1804F08D021488542C8
:100EA00005D02148854202D02048854200D100E08B
:100EB00000BF208850B92389A28861882846FFF79F
:100EC000CDFCE188284600F098F825E02088042829
:100ED0000AD12389A28861882846FFF7FFFCE188B0
:100EE000284600F093F817E0208808280AD12389C3
:100EF000A28861882846FFF73DFDE188284600F07A
:100F000092F809E02389A28861882846FFF77AFDD4
:100F1000E188284600F090F870BD0000002C0140E8
:100F2000003401400004004000080040000C004074
:100F30001AB183890B43838102E083898B438381C8
:100F40007047000070B5002400220023058C4FF686
:100F5000FF6635400584028C8388848B4FF68F753D
:100F60002C404FF6FC752C400D882C434FF6FF5556
:100F70002A400D894FF6FF7606EA05252A434D885B
:100F800006EA05252A43154DA84202D0144DA84271
:100F90001DD14FF2FF752A404D894FF6FF7606EAC4
:100FA00005252A434FF6FF352A408D8806EA052598
:100FB0002A434EF6FF752B404DF6FF752B408D8969
:100FC00006EA05152B43CD8906EA05152B438380D8
:100FD0008483CD888587028470BD0000002C014089
:100FE000003401400A460021818B4FF6F773194007
:100FF00011438183704781847047028B4FF6F373EE
:101000001A400283028B0A4302837047028B4FF21D
:10101000FF331A400283028B4FF6FF7303EA01236A
:101020001A4302837047828B4FF6F3731A40828310
:10103000828B0A4382837047828B4FF2FF331A40C0
:101040008283828B4FF6FF7303EA01231A43828364
:1010500070470000002202881D4B98420ED01D4BA5
:1010600098420BD0B0F1804F08D01B4B984205D06E
:101070001A4B984202D01A4B984204D14FF68F7304
:101080001A404B881A43174B984207D0164B984288
:1010900004D04FF6FF431A40CB881A4302808B8856
:1010A00083850B8803850A4B98420BD0094B9842E5
:1010B00008D00E4B984205D00D4B984202D00D4BF4
:1010C000984201D10B7A0386012383827047000086
:1010D000002C0140003401400004004000080040A2
:1010E000000C00400010004000140040004001408F
:1010F000004401400048014000BFFEE702E008C88C
:10110000121F08C1002AFAD170477047002001E081
:1011100001C1121F002AFBD1704701B581B0002028
:10112000009042F63C0101984843009002E000988C
:10113000401E009000980028F9D10CBDFFF7E8F997
:10114000FFF71CF9FFF7CCF9FFF7DEF8FFF7ACF873
:10115000FFF724FA00BFFEE7781100080000002026
:1011600044000000FC100008BC11000844000020EE
:10117000240400000C110008000000000000000022
:10118000000000000000000000000000000000005F
:10119000000000000000000000000000000000004F
:1011A000000000000000000000000000000000003F
:0C11B00000000000000000000000000033
:04000005080000ED02
:00000001FF
