:020000040800F2
:1000000020040020010100089B0200089302000860
:10001000970200084B0100082106000800000000BC
:10002000000000000000000000000000E1020008E5
:100030004F010008000000009D020008CD030008E9
:100040001B0100081B0100081B0100081B01000820
:100050001B0100081B0100081B0100081B01000810
:100060001B0100081B0100081B0100081B01000800
:100070001B0100081B0100081B0100081B010008F0
:100080001B0100081B010008490100081B010008B2
:100090001B0100081B0100081B0100081B010008D0
:1000A0001B0100081B0100081B0100081B010008C0
:1000B0001B0100081B0100081B0100081B010008B0
:1000C0001B0100081B0100081B0100081B010008A0
:1000D0001B0100081B0100081B0100081B01000890
:1000E0001B0100081B0100081B010008DFF80CD0F1
:1000F00000F018F8004800474306000820040020DC
:100100000648804706480047FEE7FEE7FEE7FEE7B1
:10011000FEE7FEE7FEE7FEE7FEE7FEE7D1030008A5
:10012000ED000008064C074D06E0E06840F00103D2
:1001300094E8070098471034AC42F6D3FFF7DAFF93
:100140005006000870060008704700BFFEE77047C1
:1001500010B50121082000F0B3F818200549C87037
:100160004FF40070088003208870034800F006F800
:1001700010BD000000000020000C01402DE9F041FE
:10018000024600250026002000230024002791F8C5
:1001900003C00CF00F0591F803C00CF0100CBCF17B
:1001A000000F03D091F802C04CEA050591F800C099
:1001B000BCF1000F31D0146800202BE04FF0010C8F
:1001C0000CFA00F3B1F800C00CEA03069E4220D1FD
:1001D00083004FF00F0C0CFA03F7BC4305FA03FC45
:1001E0004CEA040491F803C0BCF1280F06D14FF08B
:1001F000010C0CFA00FCC2F814C00AE091F803C02C
:10020000BCF1480F05D14FF0010C0CFA00FCC2F80C
:1002100010C0401C0828D1D31460B1F800C0BCF154
:10022000FF0F34DD546800202EE000F1080C4FF081
:10023000010808FA0CF3B1F800C00CEA03069E426C
:1002400021D183004FF00F0C0CFA03F7BC4305FAE1
:1002500003FC4CEA040491F803C0BCF1280F05D15B
:1002600000F1080C08FA0CF8C2F8148091F803C0E9
:10027000BCF1480F07D100F1080C4FF0010808FA53
:100280000CF8C2F81080401C0828CED35460BDE89A
:10029000F08100BFFEE700BFFEE770477047000037
:1002A00029B1064AD2690243044BDA6104E0034AE9
:1002B000D2698243014BDA617047000000100240AE
:1002C00029B1064A92690243044B9A6104E0034A49
:1002D00092698243014B9A6170470000001002400E
:1002E000704710B500F002F810BD00000CB50020FA
:1002F000019000903348006840F480303149086034
:1003000000BF3048006800F4003000900198401CA5
:100310000190009818B90198B0F5A06FF1D1294863
:10032000006800F4003010B10120009001E00020CE
:1003300000900098012843D12348006840F0100045
:10034000214908600846006820F00300086008465C
:10035000006840F0020008601A4840681949486087
:100360000846406848600846406840F4806048603D
:100370000846406820F47C1048600846406840F415
:10038000E81048600846006840F08070086000BFD0
:100390000C48006800F000700028F9D00948406857
:1003A00020F00300074948600846406840F002001A
:1003B000486000BF0348406800F00C000828F9D1ED
:1003C0000CBD0000001002400020024070470000F9
:1003D00010B51348006840F0010011490860084654
:1003E0004068104908400E494860084600680E49B8
:1003F00008400B4908600846006820F48020086027
:100400000846406820F4FE0048604FF41F008860F2
:10041000FFF767FF4FF000600449086010BD00005F
:10042000001002400000FFF8FFFFF6FE08ED00E0BC
:1004300010B501210220FFF733FF41F61F40134999
:10044000088042F20F70888000204880C8800872BF
:100450000F4800F093F860200E4908800120488082
:1004600041F28730C88000200881094800F02CF84C
:100470000821074800F078F80121054800F00CF841
:100480000121034800F014F810BD00000400002012
:10049000000400400E00002021B1028842F08002DA
:1004A000028004E002884FF67F731A400280704792
:1004B00021B1028842F00102028004E002884FF676
:1004C000FE731A400280704770B50024002200239A
:1004D000058C4FF6FF6635400584028C8388848B3B
:1004E0004FF68F752C404FF6FC752C400D882C4331
:1004F0004FF6FF552A400D894FF6FF7606EA05258F
:100500002A434D8806EA05252A43154DA84202D004
:10051000144DA8421DD14FF2FF752A404D894FF668
:10052000FF7606EA05252A434FF6FF352A408D88D7
:1005300006EA05252A434EF6FF752B404DF6FF755A
:100540002B408D8906EA05152B43CD8906EA051552
:100550002B4383808483CD888587028470BD00000F
:10056000002C0140003401400A460021818B4FF6E7
:10057000F7731940114381837047000000220288FD
:100580001D4B98420ED01D4B98420BD0B0F1804FBE
:1005900008D01B4B984205D01A4B984202D01A4BF8
:1005A000984204D14FF68F731A404B881A43174B69
:1005B000984207D0164B984204D04FF6FF431A409A
:1005C000CB881A4302808B8883850B8803850A4B6E
:1005D00098420BD0094B984208D00E4B984205D058
:1005E0000D4B984202D00D4B984201D10B7A0386F5
:1005F0000123838270470000002C01400034014039
:100600000004004000080040000C004000100040C2
:1006100000140040004001400044014000480140F7
:1006200000BFFEE702E008C8121F08C1002AFAD185
:1006300070477047002001E001C1121F002AFBD162
:100640007047FFF785FDFFF7F3FE00BFFEE70000F0
:1006500070060008000000200400000024060008C6
:1006600074060008040000201C0400003406000882
:040670000000000086
:04000005080000ED02
:00000001FF
