:020000040800F2
:1000000030040020010100085103000849030008E2
:100010004D0300084B010008B50600080000000071
:100020000000000000000000000000009503000830
:100030004F0100080000000053030008810400087D
:100040001B0100081B0100081B0100081B01000820
:100050001B0100081B0100081B0100081B01000810
:100060001B0100081B0100081B0100081B01000800
:100070001B0100081B0100081B0100081B010008F0
:100080001B0100081B010008490100081B010008B2
:100090001B0100081B0100081B0100081B010008D0
:1000A0001B0100081B0100081B0100081B010008C0
:1000B0001B0100081B0100081B0100081B010008B0
:1000C0001B0100081B0100081B0100081B010008A0
:1000D0001B0100081B0100081B0100081B01000890
:1000E000510100081B0100081B010008DFF80CD0BB
:1000F00000F018F800480047F90600083004002016
:100100000648804706480047FEE7FEE7FEE7FEE7B1
:10011000FEE7FEE7FEE7FEE7FEE7FEE785040008F0
:10012000ED000008064C074D06E0E06840F00103D2
:1001300094E8070098471034AC42F6D3FFF7DAFF93
:100140000407000824070008704700BFFEE7704757
:1001500010B54FF4006000F01FF8B8B100240FE0B4
:1001600002210B4800F0E9F8642000F0B4FA022103
:10017000074800F0E0F8642000F0ADFA601CC4B25B
:100180000A2CEDDB4FF400600249086010BD00004E
:10019000000C014014040140014600200022074BDE
:1001A0001B6803EA0102054B14331B680B4013B1B3
:1001B0000AB1012000E00020704700000004014067
:1001C00010B50121042000F0D5F810201149C870A5
:1001D00080010880032088700F4800F021F8012179
:1001E000082000F0C7F810200A49C8708002088073
:1001F00003208870094800F013F818200549C870DA
:100200004FF40070088003208870044800F008F85C
:1002100010BD00000400002000080140000C014057
:100220002DE9F0410246002500260020002300248D
:10023000002791F803C00CF00F0591F803C00CF0F3
:10024000100CBCF1000F03D091F802C04CEA050578
:1002500091F800C0BCF1000F31D0146800202BE0F1
:100260004FF0010C0CFA00F3B1F800C00CEA0306E1
:100270009E4220D183004FF00F0C0CFA03F7BC43D1
:1002800005FA03FC4CEA040491F803C0BCF1280F02
:1002900006D14FF0010C0CFA00FCC2F814C00AE0C1
:1002A00091F803C0BCF1480F05D14FF0010C0CFAD6
:1002B00000FCC2F810C0401C0828D1D31460B1F86B
:1002C00000C0BCF1FF0F34DD546800202EE000F1C7
:1002D000080C4FF0010808FA0CF3B1F800C00CEA62
:1002E00003069E4221D183004FF00F0C0CFA03F756
:1002F000BC4305FA03FC4CEA040491F803C0BCF1CA
:10030000280F05D100F1080C08FA0CF8C2F8148087
:1003100091F803C0BCF1480F07D100F1080C4FF071
:10032000010808FA0CF8C2F81080401C0828CED347
:100330005460BDE8F08141617047016170470AB1C6
:10034000016100E04161704700BFFEE700BFFEE7CA
:100350007047704729B1064AD2690243044BDA61FB
:1003600004E0034AD2698243014BDA61704700001E
:100370000010024029B1064A92690243044B9A6177
:1003800004E0034A92698243014B9A61704700007E
:1003900000100240704710B500F002F810BD0000D8
:1003A0000CB50020019000903348006840F4803084
:1003B0003149086000BF3048006800F40030009008
:1003C0000198401C0190009818B90198B0F5A06FF1
:1003D000F1D12948006800F4003010B101200090EC
:1003E00001E0002000900098012843D123480068D4
:1003F00040F01000214908600846006820F0030022
:1004000008600846006840F0020008601A4840682A
:10041000194948600846406848600846406840F40A
:10042000806048600846406820F47C1048600846B8
:10043000406840F4E81048600846006840F080706A
:10044000086000BF0C48006800F000700028F9D078
:100450000948406820F003000749486008464068A2
:1004600040F00200486000BF0348406800F00C0004
:100470000828F9D10CBD0000001002400020024005
:100480007047000010B51348006840F001001149A2
:10049000086008464068104908400E494860084610
:1004A00000680E4908400B4908600846006820F4BF
:1004B000802008600846406820F4FE0048604FF441
:1004C0001F008860FFF767FF4FF000600449086075
:1004D00010BD0000001002400000FFF8FFFFF6FE14
:1004E00008ED00E010B501210420FFF733FF0122E1
:1004F00091031648FFF723FF00224FF48061144850
:10050000FFF71DFF41F61F401249088041F2873076
:1005100088800020C88048800F4800F079F860206B
:100520000E490880012048800020488140F6A560DF
:10053000C880094800F020F80821074800F05AF860
:100540000121054800F00CF810BD0000000C01402E
:100550000008014014000020000800401E00002098
:1005600021B1028842F00102028004E002884FF6C5
:10057000FE731A400280704770B5002200230024E9
:10058000058C4EF6FF7635400584038C8488828B7B
:1005900048F6FF752A404FF6FF452A400D884FF672
:1005A000FF7606EA05252A434DF6FF752B400D8997
:1005B00006EA05352B434D8806EA05352B430B4DDE
:1005C000A84202D00A4DA84208D14BF6FF752C4034
:1005D0008D894FF6FF7606EA85152C438480828349
:1005E000CD88A0F84050038470BD0000002C01406D
:1005F000003401400A460021818B4FF2FF731940FD
:100600004FF6FF7303EA022319438183704700000A
:10061000002202881D4B98420ED01D4B98420BD0F1
:10062000B0F1804F08D01B4B984205D01A4B98422E
:1006300002D01A4B984204D14FF68F731A404B8860
:100640001A43174B984207D0164B984204D04FF6E6
:10065000FF431A40CB881A4302808B8883850B881E
:1006600003850A4B98420BD0094B984208D00E4B99
:10067000984205D00D4B984202D00D4B984201D1C3
:100680000B7A03860123838270470000002C01400F
:10069000003401400004004000080040000C00400D
:1006A00000100040001400400040014000440140A0
:1006B0000048014000BFFEE702E008C8121F08C161
:1006C000002AFAD170477047002001E001C1121FD3
:1006D000002AFBD1704701B581B00020009042F69E
:1006E0003C0101984843009002E00098401E0090B1
:1006F00000980028F9D10CBDFFF762FDFFF7F2FE6C
:1007000000BFFEE7240700080000002014000000DE
:10071000B806000838070008140000201C04000078
:10072000C8060008000000000000000000000000F3
:080730000000000000000000C1
:04000005080000ED02
:00000001FF
