:020000040800F2
:10000000180400200101000841030008390300081A
:100010003D0300084B010008D10800080000000063
:10002000000000000000000000000000990400082B
:100030004F01000800000000430300088505000888
:100040001B0100081B0100081B0100081B01000820
:100050001B0100081B0100081B0100081B01000810
:100060001B0100081B0100081B0100081B01000800
:100070001B0100081B0100081B0100081B010008F0
:100080001B0100081B010008490100081B010008B2
:100090001B0100081B0100081B0100081B010008D0
:1000A0001B0100081B0100081B0100081B010008C0
:1000B0001B0100081B0100081B0100081B010008B0
:1000C0001B0100081B0100081B0100081B010008A0
:1000D0001B0100081B0100081B0100081B01000890
:1000E0001B0100081B0100081B010008DFF80CD0F1
:1000F00000F018F80048004715090008180400200F
:100100000648804706480047FEE7FEE7FEE7FEE7B1
:10011000FEE7FEE7FEE7FEE7FEE7FEE789050008EB
:10012000ED000008064C074D06E0E06840F00103D2
:1001300094E8070098471034AC42F6D3FFF7DAFF93
:100140006C0900088C090008704700BFFEE7704783
:100150002DE9F0410246002500260020002300245E
:10016000002791F803C00CF00F0591F803C00CF0C4
:10017000100CBCF1000F03D091F802C04CEA050549
:1001800091F800C0BCF1000F31D0146800202BE0C2
:100190004FF0010C0CFA00F3B1F800C00CEA0306B2
:1001A0009E4220D183004FF00F0C0CFA03F7BC43A2
:1001B00005FA03FC4CEA040491F803C0BCF1280FD3
:1001C00006D14FF0010C0CFA00FCC2F814C00AE092
:1001D00091F803C0BCF1480F05D14FF0010C0CFAA7
:1001E00000FCC2F810C0401C0828D1D31460B1F83C
:1001F00000C0BCF1FF0F34DD546800202EE000F198
:10020000080C4FF0010808FA0CF3B1F800C00CEA32
:1002100003069E4221D183004FF00F0C0CFA03F726
:10022000BC4305FA03FC4CEA040491F803C0BCF19A
:10023000280F05D100F1080C08FA0CF8C2F8148058
:1002400091F803C0BCF1480F07D100F1080C4FF042
:10025000010808FA0CF8C2F81080401C0828CED318
:100260005460BDE8F081000008B50121084600F0A7
:1002700089F80121042000F085F84FF40070ADF8F2
:10028000000003208DF8020018208DF80300694655
:100290002748FFF75DFF4FF48060ADF800000320B2
:1002A0008DF8020004208DF8030069462048FFF70E
:1002B0004FFF0121042000F065F80420ADF8000094
:1002C00003208DF8020018208DF8030069461848B5
:1002D000FFF73EFF0820ADF8000003208DF8020074
:1002E00004208DF8030069461148FFF731FF012112
:1002F000082000F047F84FF48060ADF800000320BC
:100300008DF8020018208DF8030069460948FFF7B0
:100310001FFF4FF40060ADF8000003208DF80200CD
:1003200004208DF8030069460248FFF711FF08BD5D
:1003300000080140000C014000BFFEE700BFFEE7DF
:100340007047704729B1064AD2690243044BDA610B
:1003500004E0034AD2698243014BDA61704700002E
:100360000010024029B1064A12690243044B1A6187
:1003700004E0034A12698243014B1A61704700008E
:100380000010024029B1064A92690243044B9A6167
:1003900004E0034A92698243014B9A61704700006E
:1003A0000010024029B1064AD2680243044BDA60C9
:1003B00004E0034AD2688243014BDA6070470000D0
:1003C0000010024030B500210022002400232D4DF2
:1003D0006D6805F00C0121B1042905D0082923D14D
:1003E00005E0294D056022E0274D05601FE0254D01
:1003F0006D6805F47012234D6D6805F48034022594
:1004000005EB92421CB9214D554305600BE01D4D93
:100410006D6805F400351DB11C4D5543056002E0C3
:10042000194D5543056002E0174D056000BF00BF40
:10043000144D6D6805F0F0010909154D6B5C0568F8
:10044000DD4045600F4D6D6805F4E061090A104D0F
:100450006B5C4568DD4085600A4D6D6805F4605150
:10046000C90A0B4D6B5C4568DD40C560054D6D6884
:1004700005F44041890B074D6B5CC568B5FBF3F58E
:10048000056130BD0010024000127A0000093D00F5
:100490000200002012000020704710B500F002F8A2
:1004A00010BD00000CB5002001900090334800689A
:1004B00040F480303149086000BF3048006800F4E3
:1004C000003000900198401C0190009818B90198E4
:1004D000B0F5A06FF1D12948006800F4003010B1E8
:1004E0000120009001E0002000900098012843D1F5
:1004F0002348006840F01000214908600846006861
:1005000020F0030008600846006840F00200086020
:100510001A484068194948600846406848600846DB
:10052000406840F4806048600846406820F47C10D1
:1005300048600846406840F4A810486008460068D3
:1005400040F08070086000BF0C48006800F0007048
:100550000028F9D00948406820F0030007494860A6
:100560000846406840F00200486000BF0348406809
:1005700000F00C000828F9D10CBD0000001002406A
:10058000002002407047000010B51348006840F09A
:1005900001001149086008464068104908400E49AA
:1005A0004860084600680E4908400B490860084644
:1005B000006820F4802008600846406820F4FE00AF
:1005C00048604FF41F008860FFF767FF4FF000603E
:1005D0000449086010BD0000001002400000FFF850
:1005E000FFFFF6FE08ED00E001F40072B2F5007FB7
:1005F00000D100BFCA430280704721B1828942F412
:100600000052828104E082894DF6FF731A40828194
:100610007047000010B504462048844209D10121EA
:100620008803FFF7BFFE00214FF48040FFF7BAFEBA
:1006300032E01B48844209D101214804FFF792FEB1
:1006400000214FF40030FFF78DFE25E0154884426D
:1006500009D101218804FFF785FE00214FF4802095
:10066000FFF780FE18E01048844209D10121C80438
:10067000FFF778FE00214FF40020FFF773FE0BE038
:100680000A48844208D101210805FFF76BFE0021CA
:100690004FF48010FFF766FE10BD000000380140E7
:1006A0000044004000480040004C00400050004022
:1006B00002460020B1F5007F00D100BF13880B4037
:1006C0000BB1012000E000207047F0B50346002484
:1006D00000260025002040F66A17B94200D100BF6D
:1006E0001846C1F3421401F01F06012707FA06F568
:1006F000012C01D10C3004E0022C01D1103000E0BB
:1007000014301AB107682F43076002E00768AF434F
:100710000760F0BD2DE9F04786B005460E4600247F
:10072000A24600BFA1460027B08900B100BF2F46F6
:100730002C8A4CF6FF700440F08804432C82AC896C
:100740004EF6F3100440B08831890843718908439C
:100750000443AC81AC8A4FF6FF400440B0890443A7
:10076000AC8201A8FFF72EFE1F48874202D1DDF8B8
:1007700010A001E0DDF80CA0A88900F4004040B111
:100780000AEBCA0000EB0A1031684900B0FBF1F82F
:1007900007E00AEBCA0000EB0A1031688900B0FBE1
:1007A000F1F86420B8FBF0F004012009642101FB9A
:1007B0001089A88900F4004040B1322000EBC90044
:1007C000B0FBF1F000F00700044308E0322000EB3A
:1007D00009106421B0FBF1F000F00F0004432C81FC
:1007E00006B0BDE8F087000000380140C1F3080200
:1007F000828070471FB504462448844204D10121F9
:100800008803FFF7BFFD0EE02148844204D1012197
:100810004804FFF797FD06E01E48844203D10121FA
:100820008804FFF78FFD2046FFF7F4FE4FF4E13018
:1008300000900020ADF80C000C20ADF80A0000205C
:10084000ADF80800ADF80600ADF804006946204692
:10085000FFF760FF40F225512046FFF7C5FE40F24A
:1008600027712046FFF7C0FE012240F225512046A5
:10087000FFF72BFF012240F227712046FFF725FFEB
:1008800001212046FFF7B9FE1FBD000000380140DE
:10089000004400400048004070B504460D4600BFCB
:1008A00040212046FFF704FF0028F9D029462046C2
:1008B000FFF79CFF70BD70B505460C4604E021783B
:1008C0002846FFF7E9FF641C20780028F7D170BDA7
:1008D00000BFFEE702E008C8121F08C1002AFAD1D3
:1008E00070477047002001E001C1121F002AFBD1B0
:1008F000704701B581B00020009042F63C0101989C
:100900004843009002E00098401E009000980028A4
:10091000F9D10CBDFFF7A8FC0848FFF76BFF0BE00F
:1009200007480078401C0649087006A10348FFF7F5
:10093000C2FF6420FFF7DDFFF2E70000003801404E
:10094000010000204D696E682048612047726F7574
:1009500070202D2042616E4C696E684B69656E2E69
:10096000566E202D20546573740A0D008C09000802
:100970000000002018000000D4080008A4090008A6
:100980001800002000040000E40800080A0A000023
:10099000000001020304010203040607080902041F
:0409A0000608000045
:04000005080000ED02
:00000001FF
