:020000040800F2
:100000008804002001010008B10400081F04000852
:10001000230400084B010008AF0E00080000000098
:10002000000000000000000000000000C9050008FA
:100030004F0100080000000045050008B506000853
:100040001B0100081B0100081B0100081B01000820
:100050001B0100081B0100081B0100081B01000810
:100060001B0100081B0100081B0100081B01000800
:100070001B0100081B0100081B0100081B010008F0
:100080001B0100081B010008490100081B010008B2
:100090001B0100081B0100081B0100081B010008D0
:1000A0001B0100081B0100081B0100081B010008C0
:1000B0001B0100081B010008590900081B0100086A
:1000C0001B0100081B0100081B0100081B010008A0
:1000D0001B0100081B0100081B0100081B01000890
:1000E0001B0100081B0100081B010008DFF80CD0F1
:1000F00000F018F800480047230F0008880400208B
:100100000648804706480047FEE7FEE7FEE7FEE7B1
:10011000FEE7FEE7FEE7FEE7FEE7FEE7B9060008BA
:10012000ED000008064C074D06E0E06840F00103D2
:1001300094E8070098471034AC42F6D3FFF7DAFF93
:10014000400F0008600F0008704700BFFEE77047CF
:1001500010B54FF480711A4800F053F901280CD102
:100160004102174800F04DF918B9012015490870EF
:1001700010E00020134908700CE04FF400711048A3
:1001800000F03FF918B900200E49087002E0012084
:100190000C4908700B480078012808D10AA10C48C6
:1001A00000F088FE0A490B4800F074FE07E00AA13F
:1001B000074800F07FFE0649064800F06BFE10BDC0
:1001C00000080140280000200A0D4343570A0D0093
:1001D00054000020004400400A0D43570A0D00005F
:1001E00010B5144800F02CFC0121042000F0ACF9FB
:1001F000002011494880C88040F2E730888041F6ED
:100200001F400880002008720A4800F0D1FD01213B
:10021000084800F0F9FB01221146064800F090FD65
:100220000121044800F0FCFB0121024800F0FBFB27
:1002300010BD0000000800403000002010B5012172
:10024000C80200F0A1F900201A49C88048804FF682
:10025000FF708880002008800872174800F0A8FD11
:100260000420164908800020C880488008810120A9
:100270008880114800F00EFD00231A4603210E4825
:1002800000F0D2FC00210C4800F063FD01210A4877
:1002900000F0C6FB01220221074800F051FD0122B7
:1002A0001146054800F04CFD0121034800F0BBFB5E
:1002B00010BD000030000020002C01404A0000204A
:1002C00010B50121042000F05FF94FF4407005499A
:1002D00008804820C87003208870034800F006F8A2
:1002E00010BD000004000020000801402DE9F0418D
:1002F000024600250026002000230024002791F854
:1003000003C00CF00F0591F803C00CF0100CBCF109
:10031000000F03D091F802C04CEA050591F800C027
:10032000BCF1000F31D0146800202BE04FF0010C1D
:100330000CFA00F3B1F800C00CEA03069E4220D18B
:1003400083004FF00F0C0CFA03F7BC4305FA03FCD3
:100350004CEA040491F803C0BCF1280F06D14FF019
:10036000010C0CFA00FCC2F814C00AE091F803C0BA
:10037000BCF1480F05D14FF0010C0CFA00FCC2F89B
:1003800010C0401C0828D1D31460B1F800C0BCF1E3
:10039000FF0F34DD546800202EE000F1080C4FF010
:1003A000010808FA0CF3B1F800C00CEA03069E42FB
:1003B00021D183004FF00F0C0CFA03F7BC4305FA70
:1003C00003FC4CEA040491F803C0BCF1280F05D1EA
:1003D00000F1080C08FA0CF8C2F8148091F803C078
:1003E000BCF1480F07D100F1080C4FF0010808FAE2
:1003F0000CF8C2F81080401C0828CED35460BDE829
:10040000F0810246002093680B400BB1012000E010
:10041000002070470AB1016100E04161704700BFF0
:10042000FEE700BFFEE7000010B50121042000F048
:10043000ABF803201A4908801020C8700320887088
:100440001848FFF753FF0121042000F09DF8042015
:10045000134908801820C870032088701148FFF7DE
:1004600045FF0121082000F08FF880200C4908800A
:100470001020C870032088700B48FFF737FF012158
:10048000102000F081F84FF4005005490880032047
:1004900088701020C8700548FFF728FF10BD0000C5
:1004A0000400002000080140000C01400010014041
:1004B0007047000010B51E200549087000204870E4
:1004C00088700120C870084600F004F810BD0000D4
:1004D0000000002070B5002100230F22C47804B36F
:1004E000154C246804F4E064C4F5E064210AC1F109
:1004F0000403CA40447804FA03F184781440214389
:1005000009010E4C0678A155047804F01F0501245A
:10051000AC4005786D11AD0005F1E025C5F800414E
:1005200009E0047804F01F050124AC40044D06786E
:10053000761145F8264070BD0CED00E000E400E0C7
:1005400080E100E07047000029B1064AD269024309
:10055000044BDA6104E0034AD2698243014BDA6159
:10056000704700000010024029B1064A1269024398
:10057000044B1A6104E0034A12698243014B1A6179
:10058000704700000010024029B1064A92690243F8
:10059000044B9A6104E0034A92698243014B9A61D9
:1005A000704700000010024029B1064AD268024399
:1005B000044BDA6004E0034AD2688243014BDA60FC
:1005C0007047000000100240704710B500F002F8BC
:1005D00010BD00000CB50020019000903348006869
:1005E00040F480303149086000BF3048006800F4B2
:1005F000003000900198401C0190009818B90198B3
:10060000B0F5A06FF1D12948006800F4003010B1B6
:100610000120009001E0002000900098012843D1C3
:100620002348006840F0100021490860084600682F
:1006300020F0030008600846006840F002000860EF
:100640001A484068194948600846406848600846AA
:10065000406840F4806048600846406820F47C10A0
:1006600048600846406840F4E81048600846006862
:1006700040F08070086000BF0C48006800F0007017
:100680000028F9D00948406820F003000749486075
:100690000846406840F00200486000BF03484068D8
:1006A00000F00C000828F9D10CBD00000010024039
:1006B000002002407047000010B51348006840F069
:1006C00001001149086008464068104908400E4979
:1006D0004860084600680E4908400B490860084613
:1006E000006820F4802008600846406820F4FE007E
:1006F00048604FF41F008860FFF767FF4FF000600D
:100700000449086010BD0000001002400000FFF81E
:10071000FFFFF6FE08ED00E0F0B50C46154600229E
:100720000021068C4FF6FE773E400684028B018C3A
:100730004FF60C7632407E1C06EA03162E433243F7
:10074000104EB0420ED0104EB0420BD0B0F1804FE0
:1007500008D00E4EB04205D00D4EB04202D00D4E24
:10076000B04206D14FF6FD76314044F001063143E8
:1007700005E04FF6F576314044F00106314302833F
:100780000184F0BD002C0140003401400004004011
:1007900000080040000C0040F0B50C461546002251
:1007A00000210026078C4FF6EF7C07EA0C07078430
:1007B000028B018C4FF6FF7707EA041640F6FF47DD
:1007C0003A404FF6FF7707EA03373A434FF6FF7791
:1007D00007EA05273A43114FB8420ED0104FB842EE
:1007E0000BD0B0F1804F08D00E4FB84205D00E4F5D
:1007F000B84202D00D4FB84206D14FF6DF773940EC
:1008000046F01007394305E04FF65F77394044F072
:100810001007394302830184F0BD0000002C014021
:10082000003401400004004000080040000C00407B
:10083000F0B50C461546002200210026078C4FF625
:10084000FF6C07EA0C070784828B018C4FF6FF7759
:1008500007EA04264FF60C773A404FF6FF7707EA8F
:1008600003172F433A43114FB8420ED0104FB842EE
:100870000BD0B0F1804F08D00E4FB84205D00E4FCC
:10088000B84202D00D4FB84206D14FF6FF5739405B
:1008900046F48077394305E04FF2FF57394044F47E
:1008A0008077394382830184F0BD0000002C014031
:1008B000003401400004004000080040000C0040EB
:1008C000F0B50C461546002200210026078C4EF696
:1008D000FF7C07EA0C070784828B018C4FF6FF77B9
:1008E00007EA043640F6FF473A404FF6FF7707EA3B
:1008F00005273A434FF6FF7707EA03373A43114F8C
:10090000B8420ED0104FB8420BD0B0F1804F08D093
:100910000E4FB84205D00E4FB84202D00D4FB8422C
:1009200006D14DF6FF77394046F48057394305E04C
:1009300047F6FF57394044F4805739438283018496
:10094000F0BD0000002C01400034014000040040D4
:1009500000080040000C004010B50121224800F0C2
:1009600087F9E8B30121204800F05AF84FF400510C
:100970001E48FFF746FD80F0010422464FF4005167
:100980001A48FFF747FD1A4800F06FF900B21949FD
:10099000088019480078012808D1084600881749BE
:1009A0000988401A00B21649088007E013480088F9
:1009B00010490988401A00B2114908801048B0F95E
:1009C00000004FF4167148434FF4C87190FBF1F0EA
:1009D00000B20C4908800748B0F90000074900E060
:1009E00000E0088010BD0000000800400010014039
:1009F000002C0140200000202800002022000020C0
:100A0000240000202600002021B1028842F080024C
:100A1000028004E002884FF67F731A40028070471C
:100A2000CA430282704721B1028842F0010202806B
:100A300004E002884FF6FE731A40028070470000FF
:100A400010B504466848844208D10121C014FFF75C
:100A5000ABFD0021E014FFF7A7FDC4E0B4F1804F27
:100A600008D101210846FFF77FFD00210120FFF793
:100A70007BFDB8E05D48844208D101210220FFF7E8
:100A800073FD00210220FFF76FFDACE0584884425F
:100A900008D101210420FFF767FD00210420FFF7A2
:100AA00063FDA0E05348844208D101210820FFF7EC
:100AB0005BFD00210820FFF757FD94E04E4884427B
:100AC00008D101211020FFF74FFD00211020FFF772
:100AD0004BFD88E04948844208D101212020FFF7DE
:100AE00043FD00212020FFF73FFD7CE04448844285
:100AF00008D101214014FFF757FD00216014FFF7D2
:100B000053FD70E03F48844209D10121C804FFF73A
:100B10004BFD00214FF40020FFF746FD63E03A480B
:100B2000844209D101210805FFF73EFD00214FF461
:100B30008010FFF739FD56E03448844209D1012185
:100B40004805FFF731FD00214FF40010FFF72CFDA1
:100B500049E02F48844208D101214020FFF704FDDD
:100B600000214020FFF700FD3DE02A48844208D1E3
:100B700001218020FFF7F8FC00218020FFF7F4FC22
:100B800031E02548844208D101218015FFF7ECFCB3
:100B90000021A015FFF7E8FC25E02048844209D198
:100BA00001210804FFF700FD00214FF48030FFF71A
:100BB000FBFC18E01A48844209D101214804FFF7E0
:100BC000F3FC00214FF40030FFF7EEFC0BE015487A
:100BD000844208D101218804FFF7E6FC00214FF48C
:100BE0008020FFF7E1FC10BD002C01400004004014
:100BF00000080040000C00400010004000140040BD
:100C000000340140004C01400050014000540140BC
:100C100000180040001C004000200040004001403F
:100C20000044014000480140F0B50C4615461E4600
:100C30000021002200230189028B038C4FF6F877F4
:100C4000394021434FF6FC473A4040F201173A43FE
:100C50004FF6DD773B404FF6FF7707EA06172F4345
:100C60003B43018102830384F0BD0146888C7047B9
:100C700030B50246002000230024158A05EA01034E
:100C8000958905EA010413B10CB1012000E00020B0
:100C900030BD000070B505460C46244885420ED094
:100CA000234885420BD0B5F1804F08D021488542BA
:100CB00005D02148854202D02048854200D100E07D
:100CC00000BF208850B92389A28861882846FFF791
:100CD00023FDE188284600F03EF825E0208804281E
:100CE0000AD12389A28861882846FFF755FDE1884B
:100CF000284600F039F817E0208808280AD123890F
:100D0000A28861882846FFF793FDE188284600F015
:100D100038F809E02389A28861882846FFF7D0FDCA
:100D2000E188284600F036F870BD0000002C014034
:100D3000003401400004004000080040000C004066
:100D40001AB183890B43838102E083898B438381BA
:100D5000704781847047028B4FF6F3731A40028309
:100D6000028B0A4302837047028B4FF2FF331A4013
:100D70000283028B4FF6FF7303EA01231A430283B7
:100D80007047828B4FF6F3731A408283828B0A433B
:100D900082837047828B4FF2FF331A408283828BAB
:100DA0004FF6FF7303EA01231A4382837047000062
:100DB000002202881D4B98420ED01D4B98420BD04A
:100DC000B0F1804F08D01B4B984205D01A4B984287
:100DD00002D01A4B984204D14FF68F731A404B88B9
:100DE0001A43174B984207D0164B984204D04FF63F
:100DF000FF431A40CB881A4302808B8883850B8877
:100E000003850A4B98420BD0094B984208D00E4BF1
:100E1000984205D00D4B984202D00D4B984201D11B
:100E20000B7A03860123838270470000002C014067
:100E3000003401400004004000080040000C004065
:100E400000100040001400400040014000440140F8
:100E50000048014002460020B1F5007F00D100BFEC
:100E600013880B400BB1012000E000207047C1F354
:100E700008028280704770B504460D4600BF4021CD
:100E80002046FFF7E7FF0028F9D029462046FFF764
:100E9000EEFF70BD70B505460C4604E0217828468B
:100EA000FFF7E9FF641C20780028F7D170BD00BF70
:100EB000FEE700000FB4084610B5064A02A900F08C
:100EC0001AF8044602A9002000F026F8204610BCBB
:100ED0005DF814FB190F000802E008C8121F08C1D2
:100EE000002AFAD170477047002001E001C1121FAB
:100EF000002AFBD170472DE9F04116460F46044603
:100F0000002503E03946B047641C6D1C207800289A
:100F1000F8D12846BDE8F0810A68531C0B601070B8
:100F20007047FFF781FAFFF7CBF9FFF787F9FFF773
:100F300057F9FFF7BFFA01E0FFF70AF9FCE70000F5
:100F4000600F00080000002030000000D80E0008EC
:100F5000900F00083000002058040000E80E000840
:100F60000000000000000000000000000000000081
:100F70000000000000000000000000000000000071
:100F80000000000000000000000000000000000061
:04000005080000ED02
:00000001FF
