:020000040800F2
:10000000D8040020010100080D0A00083709000883
:100010003B09000853060008FD140008000000001A
:100020000000000000000000000000001D0C00089F
:100030005706000800000000710B0008090D0008B9
:100040001B0100081B0100081B0100081B01000820
:100050001B0100081B0100081B0100081B01000810
:100060001B0100081B0100081B0100081B01000800
:100070001B0100081B0100081B0100081B010008F0
:100080001B0100081B010008510600081B010008A5
:100090001B0100081B0100081B0100081B010008D0
:1000A0001B0100081B0100081B0100081B010008C0
:1000B0001B010008AD0F0008D50F00081B01000848
:1000C0001B0100081B0100081B0100081B010008A0
:1000D0001B0100081B0100081B0100081B01000890
:1000E0001B0100081B0100081B010008DFF80CD0F1
:1000F00000F09CFA004800471F150008D8040020B3
:100100000648804706480047FEE7FEE7FEE7FEE7B1
:10011000FEE7FEE7FEE7FEE7FEE7FEE70D0D00085F
:10012000ED000008F0B480EA0102D40F4200B2EB07
:10013000410F02D20246084611464A0042D0C30D82
:10014000DDB2C1F3C752AD1A202D35DAC1F3160165
:1001500041F4000204B15242C5F1200602FA06F150
:100160002A411044B3EBD05F23D0C4B1012DA0EBE2
:10017000C35009DCF0BC4FF0004202EAC352DBB2CC
:1001800000F5000000F0C7B9400000F1807000EBFE
:10019000C350A0F1807040EAD170490009E04908DD
:1001A00041EAC071A0EBC35000F50000400800EB2D
:1001B000C350F0BC00F0A6B96142012202EB41013C
:1001C000001BF6E7F0BC704781F00041AAE780F021
:1001D0000040A7E72DE9FE4F804681EA0300C00FEB
:1001E0000C46009021F0004123F00045B8EB0200DE
:1001F000A94105D24046214690461C460B46024680
:1002000023F00040104347D0270DC7F30A00C3F383
:100210000A510290401A019040286BDAC3F3130090
:1002200040F4801B0098924620B10023D2EB030AD1
:1002300063EB0B0B01985946C0F14002504600F0A9
:1002400030F906460D4650465946019A00F048F9E5
:1002500010EB08006141002487EA115284EAE77339
:100260001A4340D0009A62B3019A012A4FEA07521A
:1002700015DC001B61EB02014FF0004202EA07525D
:10028000CDE90042001C41F5801132462B4600F0BA
:100290007FF903B0BDE8F08F40462146F9E7001B27
:1002A00061EB0201001C41F5801300185B4120182E
:1002B000A2F5001747EB030140EAD570B6196D416E
:1002C00011E06D084FEA360645EAC0754FEA07525D
:1002D000001B61EB0201001C41F5801149084FEA47
:1002E00030000019514132462B4603B0BDE8F04FB3
:1002F00000F03FB90098012240000023D0EB020239
:1003000063EBE073009821464FEAE074B8EB00001D
:1003100061EB0401E9E783F000435BE781F0004112
:1003200058E72DE9FE4F81EA030404F0004421F070
:10033000004100944FF0000B23F0004350EA010409
:100340005ED052EA03045BD0C3F30A54C1F30A55EA
:100350002C44A4F2F3340194A0FB0254C1F3130122
:1003600041F48011C3F3130343F4801301FB0244EF
:1003700000FB034E840A970A44EA815447EA8357F4
:10038000A4FB076802958D0A05FB07854FEA932CAD
:1003900004FB0C542705029D4FEA065847EA16371E
:1003A000B5EB08056EEB070C870E920E47EA811736
:1003B00042EA8312A7FB0201B6EB0B0164EB0004D7
:1003C0002B0D43EA0C335E1844EB1C50DA465146C1
:1003D000E7FB0201C5F313044FEA0B3343EA14535E
:1003E0004FEA0432019C43EA0603A4F10C04029490
:1003F000009CCDE900B400F0CBF803B0BDE8F08F6D
:1004000000200146F9E796230022114600F083B848
:100410000EB5C10F80EAE0700844CA07002140F21F
:1004200033438DE80E000A460B4600F0B1F803B0E6
:1004300000BD00F0004220F00040C10DC0F31600E6
:1004400040F400007F2901DA00207047962903DC80
:10045000C1F19601C84001E096398840002AF4D0E5
:100460004042704770B5C1F30A5201F000450024C4
:10047000C1F3130140F2FF3341F480119A4201DAD3
:10048000002070BD40F233439A42A2F2334203DCB3
:10049000524200F015F800E090402C43F1D0404269
:1004A00070BD202A04DB203A00FA02F100207047D8
:1004B0009140C2F1200320FA03F3194390407047A2
:1004C000202A04DB203A21FA02F00021704721FAA9
:1004D00002F3D040C2F12002914008431946704710
:1004E000202A06DBCB17203A41FA02F043EAE073F8
:1004F00006E041FA02F3D040C2F1200291400843E5
:10050000194670470029A8BF7047401C490008BF22
:1005100020F00100704710B4B0FA80FC00FA0CF033
:1005200050EA010404BF10BC704749B1CCF120046B
:1005300021FA04F411FA0CF118BF012121430843F8
:10054000A3EB0C01CB1D4FEA00614FEA102042BF24
:10055000002010BC704700EBC35010440029A4BF1A
:1005600010BC7047401C490008BF20F0010010BCBF
:10057000704710B5141E73F1000408DA401C41F1F5
:10058000000192185B411A4301D120F0010010BD17
:100590002DE9F04D92469B4611B1B1FA81F202E08D
:1005A000B0FA80F220329046FFF77BFF04460F46F8
:1005B00040EA0A0041EA0B0153465A46084313D069
:1005C000114653EA010019D0C8F140025046FFF726
:1005D00077FF05460E46504659464246FFF761FFF3
:1005E000084305D0012004E020463946BDE8F08DDF
:1005F0000020054346EAE0762C4337430A9863051A
:10060000E40AA0EB08000022FD0A44EA47540A303D
:1006100002D500200146E9E7010510196941DDE92D
:10062000084500196941BDE8F04DA2E7064C074DA9
:1006300006E0E06840F0010394E8070098471034B2
:10064000AC42F6D3FFF756FD3C1500085C150008D8
:10065000704700BFFEE7704710B5154800F0EAFC90
:100660000121042000F086FA002012494880C88049
:100670006320888041F61F400880002008720C48E3
:1006800000F0EAFE01210A4800F0B8FC0021084809
:1006900000F0B3FE01221146054800F04BFE012197
:1006A000034800F0B7FC0121014800F0B6FC10BD82
:1006B00000080040B000002070B5264800F0CFFDD3
:1006C00025490880234800F0CAFD244909684FF4F1
:1006D000803202FB01002249086008460068214977
:1006E000096888420CD91E4909681E4A1268881A8E
:1006F000FFF789FE0446FFF79CFE1B49086019E0DE
:100700001748006817490968884210D214490968D7
:10071000144A1268881AFFF776FE05460021FFF793
:1007200056FD0446FFF785FE0F49086002E00020F1
:100730000D4908600C48006841F270714843C821B7
:1007400090FBF1F009490860054800680549086018
:1007500070BD0000000400401200002020000020B6
:100760001400002018000020980000209C000020A9
:1007700010B50121022000F0FDF900201949C880C0
:1007800048804FF6FF7088800120088000200872A2
:10079000154800F061FE0420144908800020C8803C
:1007A000022048800F200881012088800E4800F038
:1007B0006BFD02231A4601210B4800F02FFD00219A
:1007C000094800F01AFE0121074800F026FC01212B
:1007D000054800F01FFC01221146034800F0AAFD65
:1007E00010BD0000B000002000040040CA0000203E
:1007F00010B50121042000F0DDF9C0200449088073
:100800004820C87003208870024800F005F810BD29
:1008100004000020000801402DE9F04102460025B7
:100820000026002000230024002791F803C00CF0CC
:100830000F0591F803C00CF0100CBCF1000F03D0B1
:1008400091F802C04CEA050591F800C0BCF1000F18
:1008500031D0146800202BE04FF0010C0CFA00F3AB
:10086000B1F800C00CEA03069E4220D183004FF08D
:100870000F0C0CFA03F7BC4305FA03FC4CEA040422
:1008800091F803C0BCF1280F06D14FF0010C0CFA0F
:1008900000FCC2F814C00AE091F803C0BCF1480F94
:1008A00005D14FF0010C0CFA00FCC2F810C0401C3E
:1008B0000828D1D31460B1F800C0BCF1FF0F34DDBB
:1008C000546800202EE000F1080C4FF0010808FAEF
:1008D0000CF3B1F800C00CEA03069E4221D183005C
:1008E0004FF00F0C0CFA03F7BC4305FA03FC4CEA7B
:1008F000040491F803C0BCF1280F05D100F1080CE5
:1009000008FA0CF8C2F8148091F803C0BCF1480F43
:1009100007D100F1080C4FF0010808FA0CF8C2F8F2
:100920001080401C0828CED35460BDE8F08141619E
:1009300070470161704700BFFEE700BFFEE700009F
:100940002DE9F04782461B48C0F800A0014609681F
:10095000194A1268881AFFF75BFD184A1060516047
:1009600017480068FFF754FD04460D461348026817
:100970004368144908684968FFF7D3FC06462246D5
:100980002B46FFF727FC8046FFF76CFD0C490860FB
:100990000846006800280ADD0846006843F69821EA
:1009A000884204DA0649096888B200F023F9BDE8F4
:1009B000F0870000A00000209C00002068000020BC
:1009C000A80000202800002010B50121042000F01C
:1009D000F1F803200B4908801020C87003208870AC
:1009E0000948FFF719FF0121042000F0E3F8042073
:1009F000044908801820C870032088700248FFF757
:100A00000BFF10BD040000200008014070470000EB
:100A100010B54FF4A06000F053F81D200B4908708A
:100A200001204870002088700120C870084600F03E
:100A30000FF81E20054908700020487088700120BA
:100A4000C870084600F004F810BD00000000002047
:100A500070B5002100230F22C47804B3154C24681C
:100A600004F4E064C4F5E064210AC1F10403CA405F
:100A7000447804FA03F184781440214309010E4CB0
:100A80000678A155047804F01F050124AC400578D0
:100A90006D11AD0005F1E025C5F8004109E00478CD
:100AA00004F01F050124AC40044D0678761145F88A
:100AB000264070BD0CED00E000E400E080E100E0C5
:100AC00002490143024A1160704700000000FA0524
:100AD0000CED00E010B504460121084600F04AF88C
:100AE00003201149088043F6972088800020C880A1
:100AF00048804FF0804000F0AFFC60200B49088038
:100B00000120488000204881601EC8804FF080404E
:100B100000F01AFC0821C80600F066FC00214FF026
:100B2000804000F07AFA10BDB0000020BA0000202A
:100B300010B5044600214FF0804000F06EFA6020AE
:100B40000A4908800120488000204881601EC88032
:100B50004FF0804000F0F8FB0821C80600F044FC8C
:100B60000121880700F059FA10BD0000BA000020EA
:100B70007047000029B1064AD2690243044BDA618A
:100B800004E0034AD2698243014BDA6170470000F6
:100B90000010024029B1064A12690243044B1A614F
:100BA00004E0034A12698243014B1A617047000056
:100BB0000010024029B1064A92690243044B9A612F
:100BC00004E0034A92698243014B9A617047000036
:100BD0000010024029B1064AD2680243044BDA6091
:100BE00004E0034AD2688243014BDA607047000098
:100BF0000010024010B5044604210748FFF799FE93
:100C000001210548FFF793FE02210348FFF78FFEFD
:100C10002046FFF78DFF10BD00080140704710B55A
:100C200000F002F810BD00000CB50020019000900B
:100C30003348006840F480303149086000BF3048D4
:100C4000006800F4003000900198401C019000986A
:100C500018B90198B0F5A06FF1D12948006800F4E7
:100C6000003010B10120009001E0002000900098B9
:100C7000012843D12348006840F010002149086052
:100C80000846006820F0030008600846006840F04D
:100C9000020008601A4840681949486008464068E0
:100CA00048600846406840F48060486008464068F4
:100CB00020F47C1048600846406840F4E810486022
:100CC0000846006840F08070086000BF0C4800686B
:100CD00000F000700028F9D00948406820F00300B7
:100CE000074948600846406840F00200486000BF7D
:100CF0000348406800F00C000828F9D10CBD000042
:100D000000100240002002407047000010B5134858
:100D1000006840F001001149086008464068104929
:100D200008400E494860084600680E4908400B49D3
:100D300008600846006820F4802008600846406883
:100D400020F4FE0048604FF41F008860FFF767FF43
:100D50004FF000600449086010BD00000010024020
:100D60000000FFF8FFFFF6FE08ED00E0F0B50C46CE
:100D7000154600220021068C4FF6FE773E40068481
:100D8000028B018C4FF60C7632407E1C06EA03166D
:100D90002E433243104EB0420ED0104EB0420BD014
:100DA000B0F1804F08D00E4EB04205D00D4EB0428B
:100DB00002D00D4EB04206D14FF6FD76314044F0E0
:100DC0000106314305E04FF6F576314044F0010667
:100DD000314302830184F0BD002C01400034014006
:100DE0000004004000080040000C0040F0B50C4634
:100DF0001546002200210026078C4FF6EF7C07EAFB
:100E00000C070784028B018C4FF6FF7707EA041664
:100E100040F6FF473A404FF6FF7707EA03373A4379
:100E20004FF6FF7707EA05273A43114FB8420ED035
:100E3000104FB8420BD0B0F1804F08D00E4FB842DF
:100E400005D00E4FB84202D00D4FB84206D14FF632
:100E5000DF77394046F01007394305E04FF65F77FA
:100E6000394044F01007394302830184F0BD00008B
:100E7000002C014000340140000400400008004004
:100E8000000C0040F0B50C4615460022002100265B
:100E9000078C4FF6FF6C07EA0C070784828B018CE6
:100EA0004FF6FF7707EA04264FF60C773A404FF6E5
:100EB000FF7707EA03172F433A43114FB8420ED08A
:100EC000104FB8420BD0B0F1804F08D00E4FB8424F
:100ED00005D00E4FB84202D00D4FB84206D14FF6A2
:100EE000FF57394046F48077394305E04FF2FF570A
:100EF000394044F48077394382830184F0BD000097
:100F0000002C014000340140000400400008004073
:100F1000000C0040F0B50C461546002200210026CA
:100F2000078C4EF6FF7C07EA0C070784828B018C46
:100F30004FF6FF7707EA043640F6FF473A404FF690
:100F4000FF7707EA05273A434FF6FF7707EA0337AB
:100F50003A43114FB8420ED0104FB8420BD0B0F107
:100F6000804F08D00E4FB84205D00E4FB84202D085
:100F70000D4FB84206D14DF6FF77394046F4805701
:100F8000394305E047F6FF57394044F48057394369
:100F900082830184F0BD0000002C01400034014038
:100FA0000004004000080040000C004010B5012182
:100FB000064800F057F940B10121044800F02AF832
:100FC00003480068401C0249086010BD000400404E
:100FD0002000002010B50121074800F043F948B176
:100FE0000121054800F016F8FFF766FB4FF42F705B
:100FF000FFF7A6FC10BD00000008004021B10288E8
:1010000042F08002028004E002884FF67F731A40AB
:1010100002807047CA430282704721B1028842F0C1
:101020000102028004E002884FF6FE731A4002803B
:101030007047000010B504466848844208D1012179
:10104000C014FFF7C7FD0021E014FFF7C3FDC4E0A3
:10105000B4F1804F08D101210846FFF79BFD002124
:101060000120FFF797FDB8E05D48844208D10121D7
:101070000220FFF78FFD00210220FFF78BFDACE07F
:101080005848844208D101210420FFF783FD002144
:101090000420FFF77FFDA0E05348844208D10121DE
:1010A0000820FFF777FD00210820FFF773FD94E08B
:1010B0004E48844208D101211020FFF76BFD00212A
:1010C0001020FFF767FD88E04948844208D10121DC
:1010D0002020FFF75FFD00212020FFF75BFD7CE073
:1010E0004448844208D101214014FFF773FD0021D8
:1010F0006014FFF76FFD70E03F48844209D1012181
:10110000C804FFF767FD00214FF40020FFF762FDE0
:1011100063E03A48844209D101210805FFF75AFDEE
:1011200000214FF48010FFF755FD56E0344884420B
:1011300009D101214805FFF74DFD00214FF40010B2
:10114000FFF748FD49E02F48844208D101214020A3
:10115000FFF720FD00214020FFF71CFD3DE02A485D
:10116000844208D101218020FFF714FD0021802056
:10117000FFF710FD31E02548844208D10121801598
:10118000FFF708FD0021A015FFF704FD25E020482A
:10119000844209D101210804FFF71CFD00214FF40E
:1011A0008030FFF717FD18E01A48844209D1012169
:1011B0004804FFF70FFD00214FF40030FFF70AFD50
:1011C0000BE01548844208D101218804FFF702FD95
:1011D00000214FF48020FFF7FDFC10BD002C0140E2
:1011E0000004004000080040000C004000100040D7
:1011F0000014004000340140004C01400050014008
:101200000054014000180040001C00400020004035
:10121000004001400044014000480140F0B50C4648
:1012200015461E460021002200230189028B038CF3
:101230004FF6F877394021434FF6FC473A4040F2E9
:1012400001173A434FF6DD773B404FF6FF7707EA49
:1012500006172F433B43018102830384F0BD0146FF
:10126000888C704730B50246002000230024158A80
:1012700005EA0103958905EA010413B10CB10120C7
:1012800000E0002030BD000070B505460C46244843
:1012900085420ED0234885420BD0B5F1804F08D04F
:1012A0002148854205D02148854202D02048854208
:1012B00000D100E000BF208850B92389A28861884E
:1012C0002846FFF753FDE188284600F098F825E00E
:1012D000208804280AD12389A28861882846FFF73C
:1012E00085FDE188284600F093F817E0208808285B
:1012F0000AD12389A28861882846FFF7C3FDE188C7
:10130000284600F092F809E02389A28861882846DF
:10131000FFF700FEE188284600F090F870BD00005D
:10132000002C01400034014000040040000800404F
:10133000000C00401AB183890B43838102E083894A
:101340008B4383817047000070B500240022002386
:10135000058C4FF6FF6635400584028C8388848BAC
:101360004FF68F752C404FF6FC752C400D882C43A2
:101370004FF6FF552A400D894FF6FF7606EA052500
:101380002A434D8806EA05252A43154DA84202D076
:10139000144DA8421DD14FF2FF752A404D894FF6DA
:1013A000FF7606EA05252A434FF6FF352A408D8849
:1013B00006EA05252A434EF6FF752B404DF6FF75CC
:1013C0002B408D8906EA05152B43CD8906EA0515C4
:1013D0002B4383808483CD888587028470BD000081
:1013E000002C0140003401400A460021818B4FF659
:1013F000F773194011438183704781847047028BD2
:101400004FF6F3731A400283028B0A43028370473C
:10141000028B4FF2FF331A400283028B4FF6FF73A9
:1014200003EA01231A4302837047828B4FF6F3735A
:101430001A408283828B0A4382837047828B4FF2E9
:10144000FF331A408283828B4FF6FF7303EA012336
:101450001A43828370470000002202881D4B984285
:101460000ED01D4B98420BD0B0F1804F08D01B4BD3
:10147000984205D01A4B984202D01A4B984204D198
:101480004FF68F731A404B881A43174B984207D078
:10149000164B984204D04FF6FF431A40CB881A43AC
:1014A00002808B8883850B8803850A4B98420BD07A
:1014B000094B984208D00E4B984205D00D4B9842EC
:1014C00002D00D4B984201D10B7A0386012383820F
:1014D00070470000002C014000340140000400402F
:1014E00000080040000C00400010004000140040C4
:1014F00000400140004401400048014000BFFEE7B9
:1015000002E008C8121F08C1002AFAD170477047CC
:10151000002001E001C1121F002AFBD17047FFF734
:1015200053FAFFF765F9FFF723F9FFF795F8FFF78F
:101530006FFA0220FFF7CEFA00BFFEE75C15000845
:1015400000000020B0000000001500080C16000884
:10155000B000002028040000101500080000000062
:10156000000000000000000000000000000000007B
:10157000000000000000000000000000000000006B
:10158000000000009A9999999999A93F00000000DC
:10159000000000000000000000000000000000004B
:1015A000000000000000000000000000000000003B
:1015B000000000000000000000000000000000002B
:1015C000000000000000000000000000000000001B
:1015D000000000000000000000000000000000000B
:1015E00000000000000000000000000000000000FB
:1015F00000000000000000000000000000000000EB
:0C160000000000000000000000000000DE
:04000005080000ED02
:00000001FF
